:02000004085F93
:10A0000000A05F08FCFF5F080000060020000501BB
:08A01000040118150000000016
:10A018000E480F4908B5884205D00E4A824202D040
:10A028000D4B121A98470D480D4A00210D4B121A74
:10A0380098470D480D49884205D00D4A824202D002
:10A04800054B121A9847014808BD00BF84AD071098
:10A0580090F35F0804AE07102D0D111004AE071021
:10A06800E8AF0710A10E1110E8AC3F0288A05F0806
:0CA07800F0FF3F0219A05F08000000008C
:08A088007CA05F0808E73F021D
:10A0900081F0004102E000BF83F0004330B54FEA99
:10A0A00041044FEA430594EA050F08BF90EA020F06
:10A0B0001FBF54EA000C55EA020C7FEA645C7FEA99
:10A0C000655C00F0E2804FEA5454D4EB5555B8BFBC
:10A0D0006D420CDD2C4480EA020281EA030382EA2D
:10A0E000000083EA010180EA020281EA0303362DBF
:10A0F00088BF30BD11F0004F4FEA01314FF4801C92
:10A100004CEA113102D0404261EB410113F0004FA3
:10A110004FEA03334CEA133302D0524263EB43035A
:10A1200094EA050F00F0A780A4F10104D5F1200EF8
:10A130000DDB02FA0EFC22FA05F2801841F1000153
:10A1400003FA0EF2801843FA05F359410EE0A5F127
:10A1500020050EF1200E012A03FA0EFC28BF4CF058
:10A16000020C43FA05F3C01851EBE37101F000450E
:10A1700007D54FF0000EDCF1000C7EEB00006EEB1B
:10A180000101B1F5801F1BD3B1F5001F0CD34908A5
:10A190005FEA30004FEA3C0C04F101044FEA4452FC
:10A1A00012F5800F80F09A80BCF1004F08BF5FEA83
:10A1B000500C50F1000041EB045141EA050130BD63
:10A1C0005FEA4C0C404141EB0101013C28BFB1F575
:10A1D000801FE9D291F0000F04BF01460020B1FAC0
:10A1E00081F308BF2033A3F10B03B3F120020CDA93
:10A1F0000C3208DD02F1140CC2F10C0201FA0CF071
:10A2000021FA02F10CE002F11402D8BFC2F1200CD5
:10A2100001FA02F120FA0CFCDCBF41EA0C0190408B
:10A22000E41AA2BF01EB0451294330BD6FEA0404D4
:10A230001F3C1CDA0C340EDC04F11404C4F12002BF
:10A2400020FA04F001FA02F340EA030021FA04F3D1
:10A2500045EA030130BDC4F10C04C4F1200220FA28
:10A2600002F001FA04F340EA0300294630BD21FA66
:10A2700004F0294630BD94F0000F83F4801306BF2C
:10A2800081F480110134013D4EE77FEA645C18BF20
:10A290007FEA655C29D094EA050F08BF90EA020FB7
:10A2A00005D054EA000C04BF1946104630BD91EAAF
:10A2B000030F1EBF0021002030BD5FEA545C05D1B2
:10A2C0004000494128BF41F0004130BD14F58004F1
:10A2D0003CBF01F5801130BD01F0004545F0FE4165
:10A2E00041F470014FF0000030BD7FEA645C1ABF9A
:10A2F000194610467FEA655C1CBF0B46024650EAD1
:10A30000013406BF52EA033591EA030F41F40021FC
:10A3100030BD00BF90F0000F04BF0021704730B582
:10A320004FF4806404F132044FF000054FF0000157
:10A3300050E700BF90F0000F04BF0021704730B518
:10A340004FF4806404F1320410F0004548BF4042ED
:10A350004FF000013EE700BF42004FEAE2014FEA42
:10A3600031014FEA02701FBF12F07F4393F07F4F1D
:10A3700081F06051704732F07F4208BF704793F020
:10A380007F4F04BF41F40021704730B54FF4607433
:10A3900001F0004521F000411CE700BF50EA010236
:10A3A00008BF704730B54FF000050AE050EA0102DF
:10A3B00008BF704730B511F0004502D5404261EB4F
:10A3C00041014FF4806404F132045FEA915C3FF490
:10A3D000D8AE4FF003025FEADC0C18BF03325FEA2D
:10A3E000DC0C18BF033202EBDC02C2F1200300FADE
:10A3F00003FC20FA02F001FA03FE40EA0E0021FA03
:10A4000002F11444BDE600BF70B54FF0FF0C4CF4F0
:10A41000E06C1CEA11541DBF1CEA135594EA0C0FA2
:10A4200095EA0C0F00F0DEF82C4481EA030621EADD
:10A430004C5123EA4C5350EA013518BF52EA033518
:10A4400041F4801143F4801338D0A0FB02CE4FF0CA
:10A450000005E1FB02E506F00042E0FB03E54FF0FA
:10A460000006E1FB03569CF0000F18BF4EF0010EF2
:10A47000A4F1FF04B6F5007F64F5407404D25FEAEE
:10A480004E0E6D4146EB060642EAC62141EA5551A1
:10A490004FEAC52040EA5E504FEACE2EB4F1FD0CE3
:10A4A00088BFBCF5E06F1ED8BEF1004F08BF5FEA61
:10A4B000500E50F1000041EB045170BD06F0004613
:10A4C00046EA010140EA020081EA0301B4EB5C04C0
:10A4D000C2BFD4EB0C0541EA045170BD41F48011B8
:10A4E0004FF0000E013C00F3AB8014F1360FDEBFDD
:10A4F000002001F0004170BDC4F10004203C35DAB9
:10A500000C341BDC04F11404C4F1200500FA05F33B
:10A5100020FA04F001FA05F240EA020001F00042DC
:10A5200021F0004110EBD37021FA04F642EB060152
:10A530005EEA430E08BF20EAD37070BDC4F10C047C
:10A54000C4F1200500FA04F320FA05F001FA04F240
:10A5500040EA020001F0004110EBD37041F100012C
:10A560005EEA430E08BF20EAD37070BDC4F1200537
:10A5700000FA05F24EEA020E20FA04F301FA05F29F
:10A5800043EA020321FA04F001F0004121FA04F247
:10A5900020EA020000EBD3705EEA430E08BF20EA17
:10A5A000D37070BD94F0000F0FD101F00046400051
:10A5B00041EB010111F4801F08BF013CF7D041EAD3
:10A5C000060195F0000F18BF704703F000465200D7
:10A5D00043EB030313F4801F08BF013DF7D043EAA8
:10A5E0000603704794EA0C0F0CEA135518BF95EA5E
:10A5F0000C0F0CD050EA410618BF52EA4306D1D1E5
:10A6000081EA030101F000414FF0000070BD50EA03
:10A61000410606BF1046194652EA430619D094EA8D
:10A620000C0F02D150EA013613D195EA0C0F05D177
:10A6300052EA03361CBF104619460AD181EA0301CB
:10A6400001F0004141F0FE4141F470014FF0000083
:10A6500070BD41F0FE4141F4780170BD70B54FF01E
:10A66000FF0C4CF4E06C1CEA11541DBF1CEA13559E
:10A6700094EA0C0F95EA0C0F00F0A7F8A4EB050480
:10A6800081EA030E52EA03354FEA013100F0888077
:10A690004FEA03334FF0805545EA131343EA126340
:10A6A0004FEA022245EA111545EA10654FEA0026F5
:10A6B0000EF000419D4208BF964244F1FD0404F5AE
:10A6C000407402D25B084FEA3202B61A65EB03050A
:10A6D0005B084FEA32024FF480104FF4002CB6EBC7
:10A6E000020E75EB030E22BFB61A754640EA0C0047
:10A6F0005B084FEA3202B6EB020E75EB030E22BF87
:10A70000B61A754640EA5C005B084FEA3202B6EBC7
:10A71000020E75EB030E22BFB61A754640EA9C0086
:10A720005B084FEA3202B6EB020E75EB030E22BF56
:10A73000B61A754640EADC0055EA060E18D04FEA14
:10A74000051545EA16754FEA06164FEAC30343EAB4
:10A7500052734FEAC2025FEA1C1CC0D111F4801F81
:10A760000BD141EA00014FF000004FF0004CB6E77A
:10A7700011F4801F04BF01430020B4F1FD0C88BF19
:10A78000BCF5E06F3FF6AFAEB5EB030C04BFB6EB24
:10A79000020C5FEA500C50F1000041EB045170BD17
:10A7A0000EF0004E4EEA113114EB5C04C2BFD4EB44
:10A7B0000C0541EA045170BD41F480114FF0000EC8
:10A7C000013C90E645EA060E8DE60CEA135594EA44
:10A7D0000C0F08BF95EA0C0F3FF43BAF94EA0C0F47
:10A7E0000AD150EA01347FF434AF95EA0C0F7FF4BC
:10A7F00025AF104619462CE795EA0C0F06D152EA10
:10A8000003353FF4FDAE1046194622E750EA4106F3
:10A8100018BF52EA43067FF4C5AE50EA41047FF404
:10A820000DAF52EA43057FF4EBAE12E74FF0FF3C69
:10A8300006E000BF4FF0010C02E000BF4FF0010C3A
:10A840004DF804CD4FEA410C7FEA6C5C4FEA430CB3
:10A8500018BF7FEA6C5C1BD001B050EA410C0CBF02
:10A8600052EA430C91EA030F02BF90EA020F002064
:10A87000704710F1000F91EA030F58BF994208BFCB
:10A8800090422CBFD8176FEAE37040F00100704788
:10A890004FEA410C7FEA6C5C02D150EA013C07D1DF
:10A8A0004FEA430C7FEA6C5CD6D152EA033CD3D02A
:10A8B0005DF8040B704700BF8446104662468C4624
:10A8C0001946634600E000BF01B5FFF7B7FF002857
:10A8D00048BF10F1000F01BD4DF808EDFFF7F4FF80
:10A8E0000CBF012000205DF808FB00BF4DF808ED0B
:10A8F000FFF7EAFF34BF012000205DF808FB00BF2E
:10A900004DF808EDFFF7E0FF94BF012000205DF84F
:10A9100008FB00BF4DF808EDFFF7CEFF94BF012004
:10A9200000205DF808FB00BF4DF808EDFFF7C4FFFD
:10A9300034BF012000205DF808FB00BF4FEA410C46
:10A940007FEA6C5C02D150EA013C0AD14FEA430C29
:10A950007FEA6C5C02D152EA033C02D14FF0000066
:10A9600070474FF0010070474FEA410212F50012A4
:10A9700015D211D56FF47873B3EB625212D94FEA46
:10A98000C12343F0004343EA505311F0004F23FA30
:10A9900002F018BF404270474FF00000704750EA85
:10A9A000013005D111F0004008BF6FF00040704742
:10A9B0004FF00000704700BF4A0011D212F500129C
:10A9C00011D20DD56FF47873B3EB62520ED44FEA07
:10A9D000C12343F0004343EA505323FA02F0704787
:10A9E0004FF00000704750EA013002D14FF0FF30C5
:10A9F00070474FF000007047034613F8012B002A00
:10AA0000FBD1181A0138704770B502F0EDFD002532
:10AA1000054E064CA41BA408AC4200D170BD56F8EC
:10AA2000043B98470135F7E7CCFF3F02F0FF3F02B8
:10AA300000F044B808B500F0C7F9BDE8084002F0DE
:10AA40008BBD01F0F7BF02F003B800000C2008B581
:10AA5000024A034901F0F2FEFEE700BFCDCF3F02FC
:10AA600018E73F020078B0FA80F0400970470123F0
:10AA70000370704770B506460C4615462AB9BDE806
:10AA800070400368C9B29B68184700290BDA0A2A8C
:10AA900009D12D2102F038FA61423046EAB2BDE810
:10AAA000704002F04ABA2146F7E710B50446FFF7B6
:10AAB000E1FF2046BDE8104002F029BA10B54FF47E
:10AAC0007A7001F0EFFF02F0B7FC1A4902F0A8FC1F
:10AAD00000210B2002F0F8FDF0224FF4A07116487F
:10AAE00001F02EFB0021144800F00EFC0321124857
:10AAF00001F0E2FA3821114800F0E6F90F4800F0C1
:10AB000021FA0F4C2060013005D102F095FC0D496F
:10AB100002F009FAFEE70C4B0848196800F054FAF5
:10AB20002060013005D102F087FC084902F0FBF9F2
:10AB3000FEE710BDC8C201002CAE07101CAE071006
:10AB400028AE07102DE73F0288AD071046E73F0209
:10AB500070B5114C1149204600F07FFE1D212046A2
:10AB600000F075FE4FF4200600230D4D0A2220460A
:10AB70002968C4E90463E376FFF77CFF4FF0FC2308
:10AB80002661084E0A22204631686361FFF772FF92
:10AB900033682B6070BD00BF2CAE071028F73F0252
:10ABA00014AE071018AE071037B5244801A900F0FD
:10ABB000DFF9234B1860013005D102F03DFC21493B
:10ABC00002F0B1F9FEE7204A204D1368204C022B19
:10ABD0002AD100232B600123136002F02DFC0A22EE
:10ABE0002168FFF747FF02F027FC1A4902F09BF9A2
:10ABF00002F022FC9DED010A022102F085FA02F02A
:10AC00001BFC144902F08FF942F21070124B1B68C2
:10AC100090FBF3F001F046FF22682B689A4201D0C6
:10AC2000FFF796FF03B030BD012B02BFDDED017AC7
:10AC3000FDEEE77AC4ED007ACFE700BF1CAE071047
:10AC400028AE07106AE73F028CAD071014AE07105C
:10AC500018AE07108BE73F0288AD07102DE9F047CB
:10AC6000334C0021204600F04FFB2046314900F0D4
:10AC7000F4FD642001F016FF6FF0F8230026DFF8E2
:10AC8000C0902046DFF8BCA00621636100F0DFFD24
:10AC900049462046284DE676C4F810A002F030F967
:10ACA000FA2001F0FFFEDFF8A0802046032100F02B
:10ACB000CEFD29462046C4F8108002F021F9FA2082
:10ACC00001F0F0FE1D4F2046022100F0C0FD294694
:10ACD0002046276102F014F94FF47A7001F0E2FE89
:10ACE00020460621666100F0B2FD49462046E67620
:10ACF000C4F810A002F004F9642001F0D3FE20464D
:10AD0000032100F0A4FD29462046C4F8108002F07B
:10AD1000F7F8642001F0C6FE2046022100F097FDFE
:10AD2000294620462761BDE8F04702F0E9B800BF98
:10AD30002CAE071098EB3F02B0FE3F02E6005A002F
:10AD40008EE73F025000C800B400780038B50B20F1
:10AD500002F0E4FC184B194D1B68194C984228600E
:10AD600015DD02F069FB0A222168FFF79EFE02F062
:10AD700063FB0A222968FFF798FEFFF715FF02F030
:10AD80005BFB21680A22BDE83840FFF78EBE0D4B01
:10AD90001B689842F3DA0223236002F04DFB21681E
:10ADA0000A22FFF782FE02F047FB0A222968FFF71A
:10ADB0007CFEFFF753FFE2E790AD071010AE0710DF
:10ADC0008CAD071094AD0710FFF7C0BF002210B57F
:10ADD000084B0220C3E90022A2F580329A6001F0FC
:10ADE0003BFDBDE81040062305221221024801F078
:10ADF0009DB900BF04AE07102CAE071008B5044B78
:10AE0000186002F0B9FC01F0E1FE002008BD00BFAF
:10AE10007CAE0710F8B5054616460C4619B3144F1C
:10AE200002F0AAFC396801F007FF02F0A5FC0368F4
:10AE300029469B68984702F09FFC01F004FF02F04E
:10AE40009BFC2246397801F0F0FE844205460AD187
:10AE50000024AC420ADA02F08FFC03685B69984771
:10AE600030550134F5E74FF0FF30F8BD0020FCE726
:10AE70007CAE071070B5044616460D46F9B102F0D7
:10AE80007BFC104B196801F0D7FE02F075FC0368DB
:10AE900021469B6898470024A54207DD02F06CFC20
:10AEA0000368315D9B6898470134F5E702F064FC64
:10AEB00001F0C9FE003818BF0120404270BD4FF0BC
:10AEC000FF30FBE77CAE07100846FFF797BF08B5D9
:10AED000006832281BD006DC01280ED0192818D0B3
:10AEE0004FF0FF3010E064280FD0C828F8D10320BD
:10AEF00000F0D3F80130F3D0012000F098F80130D1
:10AF00004FF0FF3018BF002008BD0220F0E70120FD
:10AF1000EEE70020ECE7012008B500F0A3F80130CF
:10AF200002D14FF0FF3008BD012000F0D1F8013010
:10AF3000F7D0002000F07BF801304FF0FF3018BF51
:10AF40000020F0E7012008B500F056F8013002D1EA
:10AF50004FF0FF3008BD0C2001F0A4FD002000F0F0
:10AF60004BF80130F4D00C2001F09CFD0020F1E7FB
:10AF700038B5044604300D4600F0C5F8431C1DD01A
:10AF8000B4F90420A388002ABFBFA3F5004307EE4D
:10AF9000903A9FED0B7AF8EEE77AACBF07EE903A65
:10AFA000C4ED027ADFED076AB4BF77EEC77AF8EE38
:10AFB000677A87EEA67A002085ED007A38BD00BF5B
:10AFC000000000470000C84210B501600446FFF7CA
:10AFD000A2FF013002D14FF0FF3010BD2046FFF735
:10AFE000B1FF0130F7D02046FFF771FF01304FF07D
:10AFF000FF3018BF0020F0E713B5044601210C20F4
:10B0000001AAFFF707FF431C0FD09DF80430012170
:10B0100064F341030C2001AA8DF80430FFF72AFFE6
:10B0200001304FF0FF3018BF002002B010BD13B543
:10B0300004460121042001AAFFF7ECFE431C0FD0B7
:10B040009DF80430012164F38203042001AA8DF8E5
:10B050000430FFF70FFF01304FF0FF3018BF002022
:10B0600002B010BD13B504460121042001AAFFF768
:10B07000D1FE431C0FD09DF80430012164F38613E8
:10B08000042001AA8DF80430FFF7F4FE01304FF0E0
:10B09000FF3018BF002002B010BD13B504460121D7
:10B0A000042001AAFFF7B6FE431C0FD09DF8043020
:10B0B000012164F30513042001AA8DF80430FFF781
:10B0C000D9FE01304FF0FF3018BF002002B010BD94
:10B0D00013B504460121042001AAFFF79BFE431C7F
:10B0E0000FD09DF80430012164F3C303042001AAAA
:10B0F0008DF80430FFF7BEFE01304FF0FF3018BF6F
:10B10000002002B010BD37B50024054601210620FD
:10B1100001AAADF80440FFF77DFE013003D14FF0E6
:10B12000FF3003B030BD012107200DF10502FFF70C
:10B1300071FE0130F3D0BDF8043020462B80F0E7DB
:10B140002DE9F04F1F4685B0BDF93880A7EB010A05
:10B15000A8EB0209B9F1000FB8BFC9F10009BAF1B3
:10B16000000FB8BFCAF1000AD14583460C46154608
:10B17000BDF83C3004DD3A462C4647460D46904625
:10B18000BC4205DD2A464546904622463C461746C7
:10B190003E1BB2B20092A8EB050282EAE271A1EB7B
:10B1A000E271C6F3C03202FA86F64545B4BF012209
:10B1B0004FF0FF32019176100292BC421CDCDBF8AA
:10B1C0000020D145D2F81880C7BF294622462A461A
:10B1D000214603935846C047019A039BB61AB1B261
:10B1E00036B2002E05DA029A1544009A2DB256188E
:10B1F00036B2013424B2E0E705B0BDE8F08F704705
:10B2000010B404682469A4465DF8044B604730B468
:10B21000BDF8085004680295A46BA44630BC604792
:10B2200030B4BDF8085004680295E46BA44630BC05
:10B23000604770B4BDF90C50BDF810600468CDE9EA
:10B240000356246CA44670BC60472DE9F3411C46AC
:10B25000164605460F460368013CBDF820805B6931
:10B260003444984724B22B68CDF8048000942846D3
:10B270009C6A32463B463946A04728462B68DB6A23
:10B2800002B0BDE8F04118472DE9F34117460446E6
:10B290001D460E460368BDF820805B699847CDE9DE
:10B2A000007822686B1E33442046956A31463A4640
:10B2B0001BB2A84720462368DB6A02B0BDE8F04114
:10B2C00018472DE9F3471E4603680C465B6905469F
:10B2D0001746BDF92890BDF82C8098472644B44203
:10B2E0002B680BDACDF800802146D3F820A03A462F
:10B2F0004B4628460134D04724B2F0E72846DB6AA3
:10B3000002B0BDE8F047184713B50191B0F90E102F
:10B3100002680091146C0022B0F90C301146A0476D
:10B3200002B010BD2DE9F7439942164680460D46FE
:10B330001C46BDF92870BDF82C90026812D1BE429F
:10B34000C2BF33463E461F46CDF828907B1C946B07
:10B350009B1B324629464046A4461BB203B0BDE8BB
:10B36000F0436047BE420AD19942C2BF0B46254610
:10B370001C46CDF82890631C5B1BD46BE9E753692E
:10B380009847CDE90079D8F8003040469F6A3246A8
:10B3900023462946B8474046D8F80030DB6A03B058
:10B3A000BDE8F04318472DE9F34704460F4616461B
:10B3B0001D460368BDF82C805B69BDF9289098474D
:10B3C0002368CDF80080324639462046D3F824A0C1
:10B3D0002B46D047236809F1FF32CDF80080324474
:10B3E00039462046D3F824A012B22B46D047236812
:10B3F000CDF80080324639462046D3F820A04B468F
:10B40000D0476B1ED9192368CDF8008020461D6AED
:10B4100032464B4609B2A84720462368DB6A02B091
:10B42000BDE8F0471847704701F00303B0F90A2060
:10B430008376B0F90830C90759BF8381C281828100
:10B44000C381704730B50181002481814FF0FF3105
:10B45000054D4281C281054A4460C0E9051205607C
:10B4600004610477046230BD3CFC3F02010100012D
:10B470002DE9F04F2DED028B91B016461F46026A62
:10B48000BDF870308346BDF874809DF878509DF803
:10B490007C4003910493002A40F0C580B0F90C3041
:10B4A0008B4240F34C81B0F90E30B34240F34781F8
:10B4B000062313FB0513002B40F3418106EBC40365
:10B4C000002B40F33C81037F1BB9AF2F84BF0137B2
:10B4D000FFB2DBF8003058465B69984705220992B5
:10B4E00000220592984A07EB8703D3180C93B3B256
:10B4F0000693059A0C9B02FB05F99B5C0793ABB284
:10B500000B93BDF80C300893039B19FA83F90FFADB
:10B5100089F308EE103A08234FF000090A93039BC1
:10B5200002EB030A0FFA8AFA079ADBF80030D20717
:10B5300052D5012D1FFA89F23ED1012C3CD19B69D5
:10B5400006991F46049B0A445146584612B2B84712
:10B5500009F101034FFA83F9079B5B0807930A9BE4
:10B56000013B13F0FF030A93DED1059F01377BB245
:10B570000593099B013B13F0FF030993B9D1049B89
:10B5800043450FD0012DDBF800303BD1012C39D1E0
:10B590000899CDF8008005311C6A324608235846C8
:10B5A00009B2A0475846DBF80030DB6A11B0BDECA9
:10B5B000028BBDE8F04F184714FB02F206990A44CB
:10B5C000049901910094DB6918EE101A1F46584641
:10B5D0002B4612B2B847BBE7049A4245B8D0012DBA
:10B5E0001FFA89F207D1012C05D19B6906991F46E4
:10B5F0000A444346A8E714FB02F20699CDF80480FA
:10B600000A44DFE70B9AE40002EB8201089ACDF8C6
:10B6100004800A4411460094DC6932462B465846A1
:10B6200009B2A047BEE7137A5168FF1A1268FFB249
:10B630000B9231F8372001EBC70306929A78012D5F
:10B640000992DA7893F906A00C9293F905200A92F0
:10B6500001D8012C57D9BDF9283008930FFA8AF385
:10B6600007934FF00008C1464746DBF800305846C4
:10B670005B699847B3B20E931AFA86F30F930C9B4B
:10B680009F428FD2079B0E9A3B4403FB0423002268
:10B690001BB208EE103A434605920F9A02EB070AD6
:10B6A0000FFA8AFA099A0599914241D25A1CD2B2EC
:10B6B0005B070D9207D1069B06990B9A01339BB24B
:10B6C00012F80190069319F0800F12D0012DDBF8CB
:10B6D0000030BDF80C101AD1012C18D10A9A9B69C0
:10B6E0001144059A1E46114458465246049B09B21D
:10B6F000B047059E4FEA49090136F3B205935FFA58
:10B7000089F90D9BCEE70023CDE90733A9E705981A
:10B71000089A024402FB0511049A5846CDE90042FA
:10B72000DB6918EE102A1E4609B22B46B047E0E747
:10B73000099B013798445FFA88F8FFB29FE711B080
:10B74000BDEC028BBDE8F08F34F73F02F0B5026A22
:10B7500004460B4685B0002A34D10A2908D1438A11
:10B760000282427E03EBC2036382012005B0F0BD7A
:10B770000D29FAD0E17E007E657E71B10621B4F913
:10B78000106011FB0061B4F90C60B142C1BFB4F9A3
:10B790001210228201EBC5026282E28ACDE9020523
:10B7A0000192A28A20460092B4F91010B4F9122036
:10B7B000FFF75EFE237E228A03EB430302EB430383
:10B7C0002382D2E70A2907D100230382417E927A9D
:10B7D000438A01FB0233C7E70D29C6D0157AA94277
:10B7E000C3D3517A9942C0D351685D1BEDB201EBCE
:10B7F000C505A87828B3E97819B3E17E267E677E6F
:10B8000091B195F905100844B4F9101006FB001128
:10B81000B4F90C00814207DD00202082B4F9121037
:10B82000927A02FB07126282E28A20460192A28A81
:10B83000CDE902670092B4F91010B4F91220FFF7B5
:10B8400017FE2979227E238A01FB0233B8E70129FA
:10B8500038BF0121017641767047036A29B113B9D7
:10B86000438A0633438201627047002BFBD0438A30
:10B87000063BF7E7002180B201F037BF012180B21B
:10B8800001F033BF002180B201F02FBF012180B24F
:10B8900001F02BBF002180B201F027BF012180B24F
:10B8A00001F023BF38B5044612B209B21D46FFF7B6
:10B8B000C9FD00220B4B204623609DF9183084F807
:10B8C0003C2084F83D309DF91030226484F83E30ED
:10B8D0009DF91430A4F8442084F83F30A2646562D6
:10B8E00038BD00BF94FC3F022DE9F04104460D46EF
:10B8F00016461F46DFF84C8086B0D8E88F0F10F050
:10B9000001010BD140460591FFF7ACF8059928B12C
:10B910000B4801F015FC4046FFF7A9F89DF93430BB
:10B92000324602939DF930302946CDE90073204616
:10B93000034BFFF7B7FF204606B0BDE8F08100BF1C
:10B9400084AE071080AE0710F8B50446484F90F952
:10B950003E00002918BF0F460028164609DB0121CA
:10B9600080B201F0B1FE94F93E00012180B201F0F5
:10B97000BCFE94F93F00012180B201F0A5FE94F9CC
:10B980003F00012180B201F0B0FE94F83C5085BB2D
:10B990000123606A84F82C50276384F8343084F8DB
:10B9A0003560A66301F0D6FB94F93D0000285EDB0C
:10B9B000012180B201F088FE94F93D00012180B29E
:10B9C00001F093FE642001F06DF894F93D00002130
:10B9D00080B201F08AFE642001F064F894F93D0021
:10B9E000012180B201F081FEBDE8F840C82001F0DD
:10B9F00059B8012D20D194F92400294680B201F0D4
:10BA000063FE94F92400002180B201F06EFE94F9E7
:10BA10002600294680B201F057FE94F92600002145
:10BA200080B201F062FE94F925000028BCDB002101
:10BA300080B201F049FEB7E794F92500012180B2F8
:10BA400001F042FE94F92500012180B201F04DFE83
:10BA500094F926000028A7DB012180B201F034FE12
:10BA600094F92600012180B201F03FFE9CE7F8BD69
:10BA70000024F40090F83C3023B900F12801406A1A
:10BA800001F096BB704710B50446FFF7F3FF94F939
:10BA90003E00002805DBBDE81040002180B201F027
:10BAA00024BE10BD90F83C3013B9406A01F066BB6B
:10BAB000704710B5044690F93E00002803DB0121D1
:10BAC00080B201F012FE2046FFF7ECFF10BD10B56A
:10BAD000044690F92500002180B201F006FE94F999
:10BAE00025000121BDE8104080B201F0FEBD2DE926
:10BAF000F04105460E4614467AB190F83C304FEAC4
:10BB00001128CFB25BB94146686A01F0BFFB3946E4
:10BB1000686A01F0BBFB013CF5D1BDE8F081012B67
:10BB20001ED1B046102718F4004F95F9240014D008
:10BB3000FFF7ACFE95F92600013FFFF79FFE4FEAA5
:10BB4000480895F92600BFB2FFF794FE1FFA88F85F
:10BB5000002FE8D1013CE4D1DFE7FFF793FEE9E7EE
:10BB6000B845DAD02846FFF7B2FF013CFAD1D4E756
:10BB70002DE9F3411D460446BDF82030BDF8246090
:10BB80000093036892B2D3F8548089B2ABB2BDF986
:10BB90002070C0473146204605FB07F202B0BDE8E1
:10BBA000F041FFF7A4BF2DE9F341BDF92040002B80
:10BBB00046D0002C44D0002B05DA013111FA83F174
:10BBC0005B4209B21BB2B0F90C608E4238DD002C2A
:10BBD00005DA013212FA84F2644212B224B2B0F9E8
:10BBE0000E5095422CDD01EB03081FFA88F808F18E
:10BBF000FF3C0FFA8CFCBCF1000F21DB02EB040EC2
:10BC00001FFA8EFE0EF1FF373FB2002F18DB00291E
:10BC1000BCBF00210FFA88F3002ABCBF00220FFA34
:10BC20008EF46645DCBF731A1BB2BD42D8BFAC1A96
:10BC3000BDF82450D8BF24B2CDE90045FFF798FFE6
:10BC400002B0BDE8F0812DE9F74380460C46154669
:10BC50001E46BDF92870BDF82C90002B52D0002F45
:10BC600050D0002B05DA013414FA83F45E4224B27A
:10BC700036B2B8F90C30A34244DD002F05DA0135A5
:10BC800015FA87F57F422DB23FB2B8F90E20AA42CD
:10BC900038DD04EB060E1FFA8EFE0EF1FF3000B207
:10BCA00000282FDB05EB070C1FFA8CFC0CF1FF3191
:10BCB00009B2002926DB002CBCBF00240FFA8EF647
:10BCC000002DBCBF00250FFA8CF78342DCBF1B1B85
:10BCD0001EB28A42D8F80030DCBF521B17B2404671
:10BCE0005B699847334640462A462146CDE90079AC
:10BCF000FFF73EFF4046D8F80030DB6A03B0BDE8EE
:10BD0000F043184703B0BDE8F0832DE9F341171E57
:10BD100006460C461D46BDF8208033DBB0F90E30D8
:10BD2000BB422FDD002D2DD005DA013414FA85F445
:10BD30006D4224B22DB2B6F90C30A34222DD611956
:10BD400089B24A1E12B2002A1CDB002CBCBF0024A0
:10BD50000DB29342DCBF1B1B1DB2336830465B69DA
:10BD600098470123304600933A462B462146CDF8AA
:10BD70000480FFF7FDFE30463368DB6A02B0BDE8A1
:10BD8000F041184702B0BDE8F0812DE9F3410F1EE4
:10BD9000064614461D46BDF8208031DBB0F90C3054
:10BDA000BB422DDD002D2BD005DA013414FA85F4C9
:10BDB0006D4224B22DB2B6F90E30A34220DD6119D6
:10BDC00089B24A1E12B2002A1ADB002CBCBF002422
:10BDD0000DB29342DCBF1B1B1DB2336830465B695A
:10BDE00098473046012322463946CDE90058FFF7EF
:10BDF000BFFE30463368DB6A02B0BDE8F041184749
:10BE000002B0BDE8F081002A73B526DBB0F90E4020
:10BE1000944222DD002B20D005DA013111FA83F1A2
:10BE20005B4209B21BB2B0F90C408C4215DDCE1852
:10BE3000B6B2751E2DB2002D0FDB0029BCBF00214C
:10BE400033B2AC42D8BF631ABDF81840D8BF1BB29A
:10BE5000019401240094FFF78BFE02B070BD73B50E
:10BE6000002926DBB0F90C408C4222DD002B20D0CB
:10BE700005DA013212FA83F25B4212B21BB2B0F958
:10BE80000E40944215DDD618B6B2751E2DB2002DA7
:10BE90000FDB002ABCBF002233B2AC42D8BFA31ACA
:10BEA000BDF81840D8BF1BB2CDE900340123FFF71D
:10BEB0005FFE02B070BD70B590F83C3004460D4690
:10BEC00023B9BDE87040406A01F0E0B9012B18D1F8
:10BED00008262B0694F9240010D5FFF7D7FC94F917
:10BEE0002600FFF7CBFC013E94F92600FFF7C2FCC9
:10BEF0006D0016F0FF06EDB2EBD170BDFFF7C2FC8E
:10BF0000EDE7FFF7E4FDF8E713B5044690F93F00CD
:10BF10000191FFF7BFFC20460199FFF7CCFF94F990
:10BF20003F0002B0BDE81040FFF7B8BC70B50D4649
:10BF3000036804465B69984755B194F8441020465D
:10BF4000FFF7E2FF23682046BDE87040DB6A184730
:10BF500094F84510F3E770B590F83C3005460C4670
:10BF60004BB9090A406A01F091F9686AE1B2BDE88B
:10BF7000704001F08BB9012B18D11026230495F9DC
:10BF8000240010D5FFF782FC95F92600FFF776FC18
:10BF9000013E95F92600FFF76DFC640016F0FF06E0
:10BFA000A4B2EBD170BDFFF76DFCEDE7FFF78FFD9D
:10BFB000F8E7F7B5002904461E4617DBB0F90C3048
:10BFC0008B4213DD002A11DBB0F90E3093420DDDF8
:10BFD0000123056800936F6D92B289B2B84731466C
:10BFE000204603B0BDE8F040FFF7B5BF03B0F0BD99
:10BFF0002DE9F3410D1E044616461F4620DBB0F91D
:10C000000C30AB421CDD002A1ADBB0F90E30934233
:10C0100016DD03685B699847012322680093204678
:10C02000D2F85480A9B2B2B2C04720463946FFF7D1
:10C0300092FF20462368DB6A02B0BDE8F041184752
:10C0400002B0BDE8F08170B590F83C3004460D4672
:10C050009BB9090E406A01F019F9C5F30741606AFE
:10C0600001F014F9C5F30721606A01F00FF9606A65
:10C07000E9B2BDE8704001F009B9012B18D12026C2
:10C08000002D94F9240010DAFFF700FC94F9260043
:10C09000FFF7F4FB013E94F92600FFF7EBFB16F0E7
:10C0A000FF064FEA4505EBD170BDFFF7EBFBEDE76F
:10C0B000FFF70DFDF8E7704701F00301022970B5A5
:10C0C0000446817624D0032925D0012914BFC02538
:10C0D000A02590F84C3090F84D2019BFA0F84030C2
:10C0E000A0F84220A0F84020A0F842302368204663
:10C0F0005B69984720463621FFF706FF2046294610
:10C10000FFF7D9FE23682046BDE87040DB6A184778
:10C1100000250564EAE7002360250364E6E710B51F
:10C1200004465021FEF78FFC204610BD10B5044692
:10C1300000F09AF8014B2046236010BD18FD3F0225
:10C1400010B50021044600F0E6F80023A4F84C30B6
:10C15000064B2046E360064900F09AF82368204623
:10C16000BDE8104001211B6B184700BF4001F000E3
:10C17000ECFC3F02704770B501F003010229044650
:10C1800090F84C2090F84D30817620D0032924D0AF
:10C19000012917BFC025A025A0F84020A0F84230F3
:10C1A00004BFA0F84220A0F84030236820465B6915
:10C1B000984720463621FFF7A7FE20462946FFF77D
:10C1C0007AFE23682046BDE87040DB6A18470025E8
:10C1D000A0F84020A0F84230E7E76025A0F8422010
:10C1E000A0F84030E1E70000064B0022002918BF0C
:10C1F0000B4642F221018364A0F844101946FFF770
:10C20000A3BB00BF0024F400F8B50446B0F84070AA
:10C21000B0F84250BDF81860394413FA81F72A4447
:10C2200016FA82F5013F47EA0147013D2A2145EA16
:10C230000245FFF769FE39462046FFF704FF204616
:10C240002B21FFF761FE29462046FFF7FCFE204622
:10C25000BDE8F8402C21FFF757BE10B50446502129
:10C26000FEF7F1FB204610BD13B50446CDE90023CF
:10C270000B46A0228021FFF737FB044B20462360AA
:10C280000023A4F84C3002B010BD00BF78FD3F027F
:10C290002DE9F0470C46036805465B69984714F89A
:10C2A000017B97B32646284616F8021BFFF72CFEA3
:10C2B00094F80190B24609F07F084446013CE4B28C
:10C2C000FF2C05D028461AF8011BFFF7F4FDF5E70F
:10C2D00095F93E00012180B201F007FA95F93E0080
:10C2E000002180B201F001FA19F0800F06EB08047A
:10C2F00008D016F808000134FF2808BF4FF4FA7080
:10C3000000F0D0FB013FFFB2CBE72B682846BDE829
:10C31000F047DB6A184738B50D46036800211B6DEE
:10C32000044698472DB129462046BDE83840FFF71E
:10C33000AFBF38BD09B504480068044B03441B680F
:10C340005B6C029309BD000084AD07103000000053
:10C3500009B504480068044B03441B685B680293FA
:10C3600009BD000084AD07100000000009B50448B5
:10C370000068044B03441B68DB68029309BD00009E
:10C3800084AD07100000000009B504480068044BA4
:10C3900003441B685B69029309BD000084AD07106C
:10C3A0000000000009B504480068044B03441B6802
:10C3B0005B68029309BD000084AD07101400000003
:10C3C00009B504480068044B03441B689B6802934A
:10C3D00009BD000084AD07101400000009B5044831
:10C3E0000068044B03441B68DB68029309BD00002E
:10C3F00084AD07101400000009B504480068044B20
:10C4000003441B681B69029309BD000084AD07103B
:10C410001400000009B504480068044B03441B687D
:10C420001B6B029309BD000084AD071014000000CF
:10C4300009B504480068044B03441B68DB68029399
:10C4400009BD000084AD07101000000009B50448C4
:10C450000068044B03441B689B69029309BD0000FC
:10C4600084AD07101000000009B504480068044BB3
:10C4700003441B68DB69029309BD000084AD07100B
:10C480001000000009B504480068044B03441B6811
:10C490001B6A029309BD000084AD07101000000064
:10C4A00009B504480068044B03441B685B6A0293A7
:10C4B00009BD000084AD07101000000009B5044854
:10C4C0000068044B03441B689B6A029309BD00008B
:10C4D00084AD07101000000009B504480068044B43
:10C4E00003441B68DB6A029309BD000084AD07109A
:10C4F0001000000009B504480068044B03441B68A1
:10C500001B6B029309BD000084AD071010000000F2
:10C5100009B504480068044B03441B685B6B029335
:10C5200009BD000084AD07101000000009B50448E3
:10C530000068044B03441B681B6C029309BD000098
:10C5400084AD07101000000009B504480068044BD2
:10C5500003441B681B6D029309BD000084AD0710E6
:10C560001000000009B504480068044B03441B6830
:10C570005B69029309BD000084AD07104C00000008
:10C5800009B504480068044B03441B689B68029388
:10C5900009BD000084AD07105000000009B5044833
:10C5A0000068044B03441B68DB68029309BD00006C
:10C5B00084AD07105000000009B504480068044B22
:10C5C00003441B681B68029309BD000084AD07107B
:10C5D0001800000009B504480068044B03441B68B8
:10C5E0005B69029309BD000084AD071018000000CC
:10C5F00009B504480068044B03441B68DB690293D7
:10C6000009BD000084AD07101800000009B50448FA
:10C610000068044B03441B681B6A029309BD0000B9
:10C6200084AD07101800000009B504480068044BE9
:10C6300003441B685B6A029309BD000084AD0710C8
:10C640001800000009B504480068044B03441B6847
:10C65000DB6B029309BD000084AD071018000000D9
:10C6600009B504480068044B03441B681B6C029323
:10C6700009BD000084AD07101800000009B504488A
:10C680000068044B03441B685B6C029309BD000007
:10C6900084AD07101800000009B504480068044B79
:10C6A00003441B68DB68029309BD000084AD0710DA
:10C6B0002400000009B504480068044B03441B68CB
:10C6C0001B69029309BD000084AD0710240000001F
:10C6D00009B504480068044B03441B685B69029376
:10C6E00009BD000084AD07102400000009B504480E
:10C6F0000068044B03441B689B69029309BD00005A
:10C7000084AD07102400000009B504480068044BFC
:10C7100003441B68DB69029309BD000084AD071068
:10C720002400000009B504480068044B03441B685A
:10C730001B6A029309BD000084AD071024000000AD
:10C7400009B504480068044B03441B689B6A0293C4
:10C7500009BD000084AD07102400000009B504489D
:10C760000068044B03441B681B6C029309BD000066
:10C7700084AD07102400000009B504480068044B8C
:10C7800003441B681B68029309BD000084AD0710B9
:10C790003400000009B504480068044B03441B68DA
:10C7A0005B68029309BD000084AD071034000000EF
:10C7B00009B504480068044B03441B681B690293D5
:10C7C00009BD000084AD07103400000009B504481D
:10C7D0000068044B03441B685B69029309BD0000B9
:10C7E00084AD07103400000009B504480068044B0C
:10C7F00003441B689B69029309BD000084AD0710C8
:10C800003400000009B504480068044B03441B6869
:10C81000DB69029309BD000084AD071034000000FD
:10C8200009B504480068044B03441B681B6A029363
:10C8300009BD000084AD07103400000009B50448AC
:10C840000068044B03441B685B6B029309BD000046
:10C8500084AD07104800000009B504480068044B87
:10C8600003441B685B68029309BD000084AD071098
:10C870000800000009B504480068044B03441B6825
:10C880005B69029309BD000084AD07100800000039
:10C8900009B504480068044B03441B68D3F888308A
:10C8A000029309BD84AD07100800000009B50448D3
:10C8B0000068044B03441B68D3F89430029309BD0D
:10C8C00084AD07100800000009B504480068044B57
:10C8D00003441B68DB6B029309BD000084AD0710A5
:10C8E0002C00000009B504480068044B03441B6891
:10C8F0005B68029309BD000084AD071028000000AA
:10C9000009B504480068044B03441B689B68029304
:10C9100009BD000084AD07102800000009B50448D7
:10C920000068044B03441B68DB68029309BD0000E8
:10C9300084AD07102800000009B504480068044BC6
:10C9400003441B681B69029309BD000084AD0710F6
:10C950002800000009B504480068044B03441B6824
:10C960005B69029309BD000084AD07102800000038
:10C9700009B504480068044B03441B689B69029393
:10C9800009BD000084AD07102800000009B5044867
:10C990000068044B03441B68DB69029309BD000077
:10C9A00084AD07102800000009B504480068044B56
:10C9B00003441B681B6A029309BD000084AD071085
:10C9C0002800000009B504480068044B03441B68B4
:10C9D0001B6B029309BD000084AD07102800000006
:10C9E00009B504480068044B03441B685B6B029361
:10C9F00009BD000084AD07102800000009B50448F7
:10CA00000068044B03441B681B6C029309BD0000C3
:10CA100084AD07102800000009B504480068044BE5
:10CA200003441B685B6C029309BD000084AD0710D2
:10CA30002800000009B504480068044B03441B6843
:10CA40001B68029309BD000084AD071004000000BC
:10CA500009B504480068044B03441B685B680293F3
:10CA600009BD000084AD07100400000009B50448AA
:10CA70000068044B03441B681B6C029309BD000053
:10CA800084AD07100400000009B504480068044B99
:10CA900003441B685B6C029309BD000084AD071062
:10CAA000040000000021FFF7E5BE0000002302485B
:10CAB0000360FFF73FBC00BF8CAE07100022406848
:10CAC0001146FFF771BF002240681146FFF788BF8B
:10CAD00000224068FFF776BF0022406881F0010124
:10CAE000FFF754BF002340681A461946FFF740BFBE
:10CAF000002340681A461946FFF72CBF0022406801
:10CB00001146FFF719BF002240681146FFF7F8BE33
:10CB1000002202214068FFF701BF002340681A4647
:10CB2000FFF7E0BE0322024B5A60024A1A607047C8
:10CB300090AE0710D8FD3F027047F8B5064615467F
:10CB40000C468F18BC4206D0336830469B6814F8F8
:10CB5000011B9847F6E72846F8BD0022007CFFF746
:10CB600091BC0021007CFFF79BBC0021007CFFF7FB
:10CB7000A5BC0021007CFFF7AFBC0021007CFFF7C3
:10CB8000B9BC10B504461421FDF75DFF204610BD69
:10CB900038B5044615464FF47A730022C4E90123E0
:10CBA000094B0846217423602946FFF7BFFCBF30BC
:10CBB00008D16B69DB0705D56868FFF749FFE868AE
:10CBC000FFF746FF204638BD14FE3F020023007CDD
:10CBD0001A461946FFF72CBC7FB500221423CDE975
:10CBE0000122ADF804300B78007C8DF808304B68DA
:10CBF0000393CB6804930B7A01A90593FFF7A4FC78
:10CC000007B05DF804FB1FB5003B8DF800104FF036
:10CC1000640118BF01230391694601928DF8083021
:10CC2000FFF7DAFF05B05DF804FB0123FFF7EBBF68
:10CC30000022007CFFF70ABCC9B2FFF7F9BF00224F
:10CC4000007CFFF711BC0121FFF7F9BF704710B559
:10CC500004461821FDF7F7FE204610BDF0B5037D10
:10CC60000E46062B4FF000048DB000F1040712D0E1
:10CC700000F1080515F8011D0A22304600F05DF9A3
:10CC8000AF42044419D0002CF4D02E21304600F0DD
:10CC90003BF90444EEE72F236A4639460A208DF813
:10CCA0000040FFF75FFC6846FDF7A6FE33680246CA
:10CCB00069463046DB689847044620460DB0F0BD13
:10CCC00010B50446044B1122002140F8043B00F04B
:10CCD0004CFE204610BD00BF3CFE3F020346074A03
:10CCE00010B543F8042B01F1100251F8044B9142A6
:10CCF00043F8044BF9D10A781A7010BD3CFE3F028C
:10CD000010B59DF8084044EA032343EA0242042395
:10CD100042EA01614160037510BD000007B5064B92
:10CD20000360CB7800938B784A780978FFF7E8FFA7
:10CD300003B05DF804FB00BF3CFE3F02014B024A1A
:10CD40001A60704798AE071048FE3F020023406803
:10CD50001A46FFF7C7BD002202214068FFF7DEBD7B
:10CD6000002240681146FFF7CBBD00224068114603
:10CD7000FFF7E2BD002340681A461946FFF7EABDF7
:10CD8000002340681A461946FFF7F2BD00214068AB
:10CD9000FFF734BE00214068FFF73EBE0022406826
:10CDA00081F00101FFF7F2BD00224068FFF70ABEE3
:10CDB000002240681146FFF713BE0022406811466A
:10CDC000FFF7F2BD2DE9F04395B014460D46074636
:10CDD000FFF776FF00211C220DA8009100F0C5FD91
:10CDE000402320460C9300216B460CAAFFF7D6FB8C
:10CDF000044600284BD1024601216868FFF79CFDDC
:10CE00000221804622466868FFF796FD214681464A
:10CE1000009E002E3BD0002939D17368022B03D02D
:10CE20000A2B11D0F669F4E7B8F1000FFAD0716956
:10CE300006A804313C1D07ADFFF770FF0FCD0FC4EE
:10CE40002B6841462370EDE7B9F1000FEAD01022BC
:10CE500001A8746900F089FD062301AD8DF8143036
:10CE600004F1080318342A4618685968083303C2C5
:10CE7000A3421546F7D101A906A83C1D07ADFFF74F
:10CE80002DFF0FCD0FC42B6849462370CAE70098C9
:10CE9000FFF776FB384615B0BDE8F083024B034A36
:10CEA0001A6000225A6070479CAE071054FE3F0281
:10CEB000F8B506460D4600248F18BD420CD03368E5
:10CEC00030469B6815F8011B9847031E01DB1C4484
:10CED000F3E7002C08BF1C462046F8BD13B50446F6
:10CEE000084659B10191FDF787FD024620462368A7
:10CEF0000199DB6802B0BDE81040184702B010BDD0
:10CF000008B5FFF7EBFF08BD03689B68184738B505
:10CF10000D210546FFF7F8FF0A2104462846FFF7D2
:10CF2000F3FF204438BD38B50546FFF7D7FF044668
:10CF30002846FFF7ECFF204438BD0023012A98BFA4
:10CF40000A2230B58BB08DF8243009AC0D46B1FB08
:10CF5000F2F101FB125303F0FF03092B94BF3033AE
:10CF60003733DBB2AA4204F8013DEFD92146FFF77F
:10CF7000B5FF0BB030BD00002DE9F74F55EC104B5D
:10CF800006460F4610EE102A2B4610EE100A2946D0
:10CF9000FDF7D4FC40B153493046FFF79FFF82466E
:10CFA000504603B0BDE8F08F25F000494FF0FF3246
:10CFB000204649464C4BFDF7C1FC48B94FF0FF32C3
:10CFC00020464946484BFDF79BFC08B94749E3E733
:10CFD0004FF0604220462946454BFDF7A5FC08B1BD
:10CFE0004449D9E74FF0604220462946424BFDF7BD
:10CFF0007DFC0028F4D10022002320462946FDF7BD
:10D0000075FCD0B12D213046FFF77EFF05F10043BE
:10D0100082461D464FF0000B00204FF000083749B4
:10D02000DFF8E0905FFA8BF39F4208D942464B4607
:10D03000FDF714FB0BF1010BF4E78246EAE7224609
:10D040002B46FDF72BF80D460446FDF7B5FC804650
:10D05000FDF760F902460B4620462946FDF71CF80D
:10D060000A2204460D4630464146FFF766FF8244D9
:10D07000002F95D030462249FFF730FF4FF00008CF
:10D08000DFF880908244002F8AD042464B462046EB
:10D090002946FDF7B9F904460D46FDF765FCB0F1E8
:10D0A000000B1CDA2D213046FFF72EFF0346CBF193
:10D0B00000010A2230460193FFF73FFF019B013F29
:10D0C000184482445846FDF735F902460B4620467F
:10D0D0002946FCF7E1FFFFB204460D46D3E7594667
:10D0E0000023E6E788FE3F02FFFFEF7F8CFE3F0252
:10D0F000FFFFEF4190FE3F02FFFFEFC10000E03F66
:10D1000094FE3F020000244038B5044610EE100A99
:10D11000CDB2FDF721F941EC100B29462046BDE8C0
:10D120003840FFF729BF00000022014B9A6070478A
:10D13000A4AE07100021FFF7A1BA0021FFF790BAB3
:10D1400010B5044608462170FFF752FA0023204626
:10D15000636010BD13B504460078FFF7EEFF58B9C1
:10D1600020784FF6FF710190FFF726FA019802B080
:10D17000BDE81040FFF7DEBF02B010BD0078FFF73A
:10D18000D9BF000030B50024400818601868E5B227
:10D19000884206D90134082C02D040081860F5E70F
:10D1A0000725024B5B5D137030BD00BF96FE3F024A
:10D1B0002DE9F04306468FB000780C46FFF7BDFF1F
:10D1C00000281BDB1422002109A8357800F0CDFBD4
:10D1D0000B230022284609A9ADF82430FFF724FAD2
:10D1E0009DF82D3013B19DF82C5055B10027012525
:10D1F000B946B84623795DB1C3B100200FB0BDE890
:10D20000F083DDF830809DF834909DF83570F1E7BB
:10D21000002B35D1A368434508D18DF820908DF8B7
:10D220002170BDF82020A3899A42E6D00023A1688E
:10D230008DF80F300A9804AB0DF10F02FFF7A2FF33
:10D24000217985B989B9A36843450ED38DF820901B
:10D250008DF82170BDF82020A3899A4205D1049B46
:10D26000434502D1C9E70029F9D100230193637B2B
:10D270009DF80F200093237B3078FFF7E3F9BCE79C
:10D280002B462A460121CDE90055F5E708B500787F
:10D29000FFF7A0F9C0B208BD02220020044B1A60BB
:10D2A000044B054AC3E900009A60FFF7D5BA00BFF6
:10D2B000C0AE0710B4AE07100000FFFF024B1A68A3
:10D2C000024B1A60704700BF98AD0710C4AE07103C
:10D2D00070474174704708B5007CFFF731FA20EAC7
:10D2E000E07008BD08B5007CFFF7E4F920EAE070C3
:10D2F00008BD08B5007CFFF7F9F940EAE07008BD09
:10D3000008B5007CFFF7E4F940EAE07008BD007C56
:10D31000FFF7FAB937B5457C04462DB1207C03B040
:10D32000BDE83040FFF7B8B9007C0191FFF708FA7B
:10D3300000280199F2DC284603B030BD10B5044640
:10D340001421FDF780FB204610BD000010B54FF4FE
:10D350007A730446084611460022C4E90123044BAF
:10D360002074236001236374FFF7F8F9204610BD91
:10D37000C4FE3F02007CFFF7D5B941747047704787
:10D38000704708B50021007CFFF72EFA40EAE070F4
:10D3900008BD08B50121007CFFF726FA40EAE070DD
:10D3A00008BD08B5007CFFF711FA20EAE07008BD5F
:10D3B00008B5007CFFF7FCF920EAE07008BD13B562
:10D3C0000446007C0191FFF701FA0028019901DC75
:10D3D000607C20B1207CFFF715FA20EAE07002B0F3
:10D3E00010BD007CFFF71CBA10B504461421FDF7F0
:10D3F0002AFB204610BD000010B54FF47A73044696
:10D4000008460021C4E90113044B20742360012362
:10D4100011466374FFF7B0F9204610BDF4FE3F02D9
:10D420000022007CFFF7B6B910B504461422002193
:10D4300000F09BFA204610BD10B588B003A8FFF796
:10D44000F3FF0C4CD4E88F1F11F001010FD12046DF
:10D450000191FDF707FB019948B103AA0648FFF7C0
:10D46000CBFF2046FDF703FB044800F06BFA0248AF
:10D4700008B010BDC8AE0710CCAE0710DFDF3F020A
:10D48000002240681146FFF757BA00224068114653
:10D49000FFF78ABA002240681146FFF7A1BA0022BE
:10D4A0004068FFF78FBA0022406881F00101FFF762
:10D4B0006DBA002340681A461946FFF759BA00238F
:10D4C00040681A461946FFF745BA002240681146DF
:10D4D000FFF716BA002202214068FFF71FBA0023A7
:10D4E00040681A46FFF7FEB90422024B5A60024A0E
:10D4F0001A607047E0AE071024FF3F02014B18602E
:10D50000704700BF9CAD071008B50F4B43B1FFF744
:10D5100093FF03681B699847002801DD00E000BF06
:10D520000A4B43B100F07CF903681B699847002857
:10D5300001DD00E000BF064B0BB100F0B7F9054B71
:10D540000BB100F0E9F908BD000000000000000088
:10D55000000000000000000008B5FFF7D5FFFEF74F
:10D5600013FF014B186008BDF0AE07100548064ACE
:10D5700008B5121A054900F0EBF9054B054A1A6087
:10D5800008BD00BF00B4071004B4071010F45F0812
:10D5900000B407101E1C279A002307B51A466FF027
:10D5A00077010093FFF782F903B05DF804FB0000F8
:10D5B00007B543880A2B08D0502B0BD1094B1B68A9
:10D5C0004BB103B05DF804EB1847FFF7E5FF03B07C
:10D5D0005DF804FB00231A466FF077010093FFF714
:10D5E00065F9F4E7ECAE0710002110B51148FFF71C
:10D5F0004BFA114B1A68114B9A420CBF01220022C0
:10D600000F4B1A7001D0FFF7B1FFFEF7A1FE0446E1
:10D6100000F0B4F90B4B13B1204600E000BF00212D
:10D620000848FFF751F9BDE8104000210648FFF710
:10D630002FB900BF5DE13F0200B407101E1C279AFE
:10D64000E8AE07100000000011E23F021B2837B5CA
:10D65000044602D9002003B030BDA0F10F03022B15
:10D660000BD9012821D800F087F80021007CFEF7B3
:10D670004FFF80F00100C0B2EDE7114DD5E88F1FDC
:10D6800011F001010BD128460191FDF7EBF9019949
:10D6900028B10C48FFF754FD2846FDF7E8F9094B7F
:10D6A0001878FEF7B3FF0028D4D1083C012C05D828
:10D6B00000F0B6F8007CFFF735F8DAE70120CAE79A
:10D6C00080AE071084AE07101B2838B504460D46FF
:10D6D0000AD8FF2908D0FFF7B9FF28B1294620460C
:10D6E000BDE83840FEF76CBE38BD38B504460D467F
:10D6F000FEF774FEFF2810D0062804D84D2323FA25
:10D7000000F0C30709D42046FFF7A0FF28B129463F
:10D710002046BDE83840FEF76FBE38BD10B5044660
:10D72000FFF794FF50B103212046FEF73BFE03288C
:10D7300004D12046BDE81040FEF76CBE002010BDAD
:10D740007047000038B50A4B0446036001230949BD
:10D750004361202000F0F4F8202560600549284648
:10D76000A56000F0EDF8C4E90305204638BD00BF10
:10D770001800010058FF3F0230B50E4D87B0D5E8C4
:10D780008F1F11F0010411D12846FDF76BF968B124
:10D790006846FFF7D7FF6A4621460748FFF7F8F9C2
:10D7A0002846FDF764F9054800F0CCF8024807B0B8
:10D7B00030BD00BFF4AE0710F8AE0710A1E33F0282
:10D7C0007047000038B5142504462A46002100F0B1
:10D7D000CCF825804025074928462581258200F080
:10D7E000AFF804496060284600F0AAF8E0602046DF
:10D7F00038BD00BF58FF3F027047704710B5044660
:10D80000FFF7E0FF204610BD10B50446FFF7DAFF32
:10D81000204610BD10B50446FFF7D4FF204610BDCA
:10D8200030B50E4D87B0D5E88F1F11F0010411D12E
:10D830002846FDF717F968B101A8FFF7DFFF214679
:10D8400001AA0748FFF782FD2846FDF710F90548B1
:10D8500000F078F8024807B030BD00BF0CAF0710E9
:10D8600018AF071021E43F0210B50D4C86B0D4E884
:10D870008F3FDB0711D42046FDF7F4F868B101A80B
:10D88000FFF7C2FF012101AA0648FFF75FFD20460E
:10D89000FDF7EDF8044800F055F8024806B010BD59
:10D8A00010AF07102CAF07105BE43F0210B5FFF775
:10D8B000DBFF074B044653B1FFF75CFD38B123682B
:10D8C00020461B699847002801DD00E000BF10BD1D
:10D8D0000000000010B50D4C86B0D4E88F3FDB0788
:10D8E00011D42046FDF7BEF868B101A8FFF792FFFA
:10D8F000022101AA0648FFF729FD2046FDF7B7F8E7
:10D90000044800F01FF8024806B010BD14AF07101D
:10D9100040AF071059E43F0210B5FFF7DBFF074B9C
:10D92000044653B1FFF726FD38B1236820461B6932
:10D930009847002801DD00E000BF10BD0000000096
:10D94000FDF77FB8002301461A46184600F044B898
:10D950000A44431E914200D1704710B511F8014BA3
:10D96000914203F8014FF9D110BD0244034693429E
:10D9700000D1704703F8011BF9E7000038B5104BE0
:10D9800004461D68AB6BB3B91820FFF753F8024685
:10D99000A86320B90B4B42210B48FFF767F80B49EE
:10D9A0000B4BC0E900130B4B002183600B238381D9
:10D9B0000120C2E90401AB6B00221C615A6138BD31
:10D9C0009CAD071059FF3F0270FF3F020E33CDABF5
:10D9D00034126DE6ECDE05002DE9F843DFF8BC807B
:10D9E00006461F460D46D8F80000914600F058F84C
:10D9F000264B1C6834B9264C1C60264B13B11B689F
:10DA0000C4F8883063681F2B07DDD8F8000000F0E9
:10DA100049F84FF0FF30BDE8F8835EB3D4F88800D2
:10DA200088B91D4B23B9D8F8000000F03AF8F0E7A8
:10DA30004FF48470FEF7FEFF0028F4D00023C0E905
:10DA40004033C4F8880063680122022E40F8239016
:10DA500002FA03F200EB8301D0F8003143EA02033B
:10DA6000C0F80031C1F8807002BFD0F80431134310
:10DA7000C0F804316368D8F800005A1C02336260B1
:10DA800044F8235000F00EF80020C4E7E0AF071080
:10DA900054AF07100000000095D63F0200AE0710FB
:10DAA000704770477047000069B63F0291B63F0269
:10DAB00095B63F020000000043616C6C206F6E2041
:10DAC00070757265207669727475616C004572724A
:10DAD0006F723A2053575F524553455428292E20E0
:10DAE00053544F5021004572726F723A207365741F
:10DAF0005F636F6E74696E756F75735F6D6F64656C
:10DB000028292E2053544F5021004572726F723ACB
:10DB100020726561645F74656D70657261747572A1
:10DB20006528292E2053544F5021002043005A00CD
:10DB30000000000006000100000001050200FC00DA
:10DB4000010003010400FC00020005050600FC00C2
:10DB5000060005050600FC000A0005050600FC009D
:10DB60000E0005050600FC00120001010200FC0089
:10DB7000130002050300FC00150002050300FC0071
:10DB8000170003030400FD00190003030400FD0057
:10DB90001B000102020000001C0004010500FE0041
:10DBA0001D000101020000001E0005050600FC002A
:10DBB000220005050600FC00260001050200FC000D
:10DBC000270005050600FC002B0005050600FC00EB
:10DBD0002F0005050600FC00330005050600FC00CB
:10DBE000370005050600FC003B0005050600FC00AB
:10DBF0003F0005050600FC00430005050600FC008B
:10DC0000470001040200FD00480001040200FD007D
:10DC1000490003050400FC004B0004030500FD005F
:10DC20004D0003050400FC004F0005050600FC0044
:10DC3000530005050600FC00570005050600FC0022
:10DC40005B0005050600FC005F0005050600FC0002
:10DC5000630005050600FC00670005050600FC00E2
:10DC60006B0005050600FC006F0005050600FC00C2
:10DC7000730005050600FC00770005050600FC00A2
:10DC80007B0005050600FC007F0005050600FC0082
:10DC9000830005050600FC00870005050600FC0062
:10DCA0008B0005050600FC008F0005050600FC0042
:10DCB000930005050600FC00970005050600FC0022
:10DCC0009B0005050600FC009F0005050600FC0002
:10DCD000A30005050600FC00A70005050600FC00E2
:10DCE000AB0005050600FC00AF0005050600FC00C2
:10DCF000B30005050600FC00B70005050600FC00A2
:10DD0000BB0005050600FC00BF0002050300FC0087
:10DD1000C10005050600FC00C50002050300FC006B
:10DD2000C70003020400FC00C80005010600010052
:10DD3000C90001010200FC00CA0004040500FD0046
:10DD4000CC0004050500FC00CF0004040500FD0024
:10DD5000D10004050500FC00D40004040500FD000A
:10DD6000D60003050400FC00D80004050500FD00F2
:10DD7000DB0004050500FC00DE0001040200FD00DC
:10DD8000DF0002050300FD00E10004050500FC00C2
:10DD9000E40001050200FC00E50005040600FD00AA
:10DDA000E80004040500FD00EA0004040500FD008D
:10DDB000EC0004050500FD00EF0004050500FD0072
:10DDC000F20004040500FD00F40004040500FD0059
:10DDD000F60005050600FC00FA0004040500FD003D
:10DDE000FC0004040500FD00FE0005040600FD0023
:10DDF000010104040500FD00030104050500FD0008
:10DE0000060104040500FD00080103050400FC00F0
:10DE10000A0101050200FC000B0103050400FC00DF
:10DE20000D0105030600FD00E8A057D5F500FD3EF5
:10DE30005F8088888880F4BF2E80806A409580AAA1
:10DE4000805D00C0F08008888800FC631F80F8F8BF
:10DE50007F0F80F87E1F808C7E1080FC3E1F80FC30
:10DE60003F1F80F8421080FC7F1F80FC7E1F809047
:10DE7000B02A22F0F088A8F84E0200FD6F0F80FC57
:10DE80007F1880F47D1F00FC210F80F4631F00FCCD
:10DE90003F0F80FC3F0800FC2F1F808C7F1880F90B
:10DEA000084F8078852F808DB1688084210F80FD98
:10DEB0006B5A80FC631880FC631F80FC7F0800FCA9
:10DEC000633F80FC7F2900FC3E1F80F90842008CE4
:10DED000631F808C62A200AD6B5F808A88A8808CF3
:10DEE000544200F87F0F80EAC082082080D5C054D9
:10DEF000F880F1FF8F99F0F88F1F99F0FF8F6BA4D6
:10DF0000F99F108F9990F055C08AF990F8FD631031
:10DF1000F999F99FF99F80F99F20F888471F27C832
:10DF20004200999F99978C6BF09669999F102E8F5C
:10DF30002B22F889A80FE0009CEE3F02A4EB3F02E1
:10DF4000207E1D00000000000700010000000411F9
:10DF50000803F00009000A060B01EF0011000D1084
:10DF60000D00F1002B000D140D00EF004C001311FB
:10DF70001501F000750010111101F0009700040662
:10DF80000601EF009A0006160801EF00AB00061626
:10DF90000801EF00BC0007080901EF00C3000B0BEC
:10DFA0000E02F600D30004070601FE00D7000603A8
:10DFB0000801F900DA0004030601FE00DC00061186
:10DFC0000700F000E9000C110D01F000030107113A
:10DFD0000E03F00012010C110D01F0002C010C11C8
:10DFE0000D01F00046010B110D01F0005E010C1156
:10DFF0000D01F00078010C110D01F00092010B11E0
:10E000000D01F000AA010C110D01F000C4010C116A
:10E010000D01F000DE01040C0601F500E40104101E
:10E020000601F500EC010C0C0E01F500FE010C09D7
:10E030000E01F7000C020C0C0E01F5001E020C1272
:10E040000F02EF00390215151701EF0071021012CF
:10E050001100EF0095020E121102EF00B50210122E
:10E060001101EF00D9020F121102EF00FB020D1295
:10E070001002EF0019030C120F02EF00340310120C
:10E080001201EF0058030E121202EF00780304127F
:10E090000702EF0081030B120E01EF009A0310122A
:10E0A0001102EF00BE030B120F02EF00D703111293
:10E0B0001502EF00FE030F121202EF0020041112EE
:10E0C0001301EF0047040E121002EF006704111352
:10E0D0001301EF00900410121102EF00B4040F12AC
:10E0E0001001EF00D6040C120F02EF00F1040E1223
:10E0F0001202EF0011050F121000EF003305171286
:10E100001700EF0067050F121001EF0089051012CC
:10E110000F00EF00AD050D120F01EF00CB05061744
:10E120000802EF00DD0507110700F000EC050617F7
:10E130000800EF00FE050C0B0E01F0000F060F02A9
:10E140000DFF0400130604030600EF0015060D0D75
:10E150000E01F4002B060D120F02EF0049060C0D04
:10E160000D01F4005D060D120F01EF007B060D0D91
:10E170000E01F400910607120801EF00A1060D122E
:10E180000F01F400BF060C120E02EF00DA060412B3
:10E190000702EF00E30606170700EF00F5060C1272
:10E1A0000E02EF00100704120602EF001907130D0C
:10E1B0001502F40038070C0D0F02F4004C070D0D8A
:10E1C0000F01F40062070D120F02F40080070D1218
:10E1D0000F01F4009E07080D0902F400AB070C0DB7
:10E1E0000D01F400BF07060F0801F200CB070C0D6C
:10E1F0000F02F400DF070D0D0D00F400F507120DFE
:10E200001300F40013080D0D0D00F40029080D1281
:10E210000D00F40047080A0D0C01F4005808061719
:10E220000901EF006A0802160702EF0070080617DE
:10E230000903EF0082080C050C00F900FFFFFFFF47
:10E24000766660FFF0F3FCFF3FCF6198600E70735D
:10E250008318FFF7FFBFFC73831818C7FFBFFDFFCC
:10E26000E31839C1CE0E7002007E0FF87FE7AFB918
:10E270003DC80F403F00FF00FC05FF27F93FEBEFD3
:10E28000FE3FE07C008004003C060FC181FC30733F
:10E290008C0C3181CE601FCC03F3003C678019F8F1
:10E2A000027F80CE7011860639C187F8307E0C0758
:10E2B0008007801FC03FE03CE03CE03EE00FC0072D
:10E2C000003F8C7FCCF1FCF0F8F078F8F87FFC3F51
:10E2D000DE1F8EFFFF660C738E71C738E38E38E346
:10E2E0008E1C71C38E1870C3871C38E3871C71C7DE
:10E2F0001C71CE38E71C638010235FF3871B140E5C
:10E3000001C038070FFFFFFFF8700E01C03800FF93
:10E31000F336C0FFFFC0FFF00C308618610C30C22E
:10E3200018618430C01F83FC7FE79EF0FF0FF0FF71
:10E330000FF0FF0FF0FF0FF0F79E7FE3FC0F0006DA
:10E340001C7FFFE3C78F1E3C78F1E3C78F1E1F833E
:10E35000FC7FEF9FF0FF0F00F00F01E03C0F81E02A
:10E360003C03807FF7FF7FF01F07FCFFEF1EF1E00B
:10E370001E03C07807C01E00F00FF0FF1F7FE7FCF0
:10E380001F8003C0F81F07E1BC278CF31E63D87BF6
:10E39000FFFFFFFE0780F01E03C03FE7FE7FE700A0
:10E3A0006006F87FCFFEF1F00F00F00F00FE1EFFB9
:10E3B000E7FC3F000F83FC7FE79FF00F78FFCFFE65
:10E3C000F9FF0FF0FF0FF0F79F7FE3FC0F80FFFFD7
:10E3D000FFFF80E01C0701E0380F01C0780F01E06B
:10E3E000380F01E03C000F03FC7FC79E70E70E3939
:10E3F000C1F83FC79EF0FF0FF0FF9F7FE3FC1F8037
:10E400001F03FC7FEF9EF0EF0FF0FF0FF9F7FF3FC8
:10E41000F1EF00EF1E7FE7FC1F00FFF000000FFF91
:10E42000FFF000000FFF116C00100703F1FC7E0FDE
:10E4300080E00FC03F807F00F003FFFFFFFFF00090
:10E44000000000FFFFFFFFF0000E00FC07F00FE0F0
:10E450001F00F07F1F8FE0F008001F07FC7FEF9F79
:10E46000F0FF0F00F00F01E03C0780F00E00E0002D
:10E4700000F00F00F000FE001FFC03C0F03801C3E5
:10E480008007183D9987EC6C71C3C3061E1830F1E4
:10E4900081878C187C60C3638E3B8FDF8C3CF0706F
:10E4A0000001C0000780801FFE001FC00003E003C2
:10E4B000E003E007F007F007700F780E780E381EC3
:10E4C0003C1C3C3FFC3FFE3FFE780E780F700FF087
:10E4D00007FFC3FFCFFF3C3EF07BC1EF0FBFFCFF48
:10E4E000E3FFCF07BC0FF03FC0FF07FFFEFFFBFFBE
:10E4F0008007E01FF83FFC7C3E781FF80FF000F02B
:10E5000000F000F000F000F000F80F781F7C3E3FB4
:10E51000FE1FFC07F0FFE1FFE3FFE783EF03DE07E9
:10E52000FC07F80FF01FE03FC07F80FF03FE07BC31
:10E530001F7FFCFFF1FF80FFF7FFBFFDE00F0078BA
:10E5400003C01FFCFFE7FF3C01E00F007803C01F82
:10E55000FFFFFFFFC0FFFFFFFFFF00F00F00F00F06
:10E56000FEFFEFFEF00F00F00F00F00F00F00F00C5
:10E5700003F00FFC3FFE3E1F78077800F000F0002C
:10E58000F07FF07FF07FF00778077C0F3E1F3FFBA6
:10E590000FFB03E3F03FC0FF03FC0FF03FC0FF039E
:10E5A000FFFFFFFFFFFF03FC0FF03FC0FF03FC0F67
:10E5B000F03FC0F0FFFFFFFFFFFFFFFFFF01E03C68
:10E5C0000780F01E03C0780F01E03C07F8FF1FE34F
:10E5D000FC7BFE7FC3E0F03EF03CF078F0F0F1E031
:10E5E000F3C0F780FF00FF80FF80FBC0F1E0F0F098
:10E5F000F0F0F078F03CF03EF01EF01E03C0780F13
:10E6000001E03C0780F01E03C0780F01E03C07FFEB
:10E61000FFFFFCF81FFE0FFF0FFF87FFC3FFE1FFA7
:10E62000F9FFFCEFFE77FB3BFDDDFEFCFF7E7F9FED
:10E630003FCF9FE78FF3C7F8E3C0F01FF03FF07FB5
:10E64000E0FFE1FFC3FDC7FB8FF39FE73FC77F8F6D
:10E65000FF0FFE1FFC1FF81FF03FE03C03E00FFC24
:10E660000FFF87C7C780F3C07BC01FE00FF007F81C
:10E6700003FC01FE00F780F3C078F0F87FFC1FFC7C
:10E6800003F800FFE3FFEFFFBC1FF03FC0FF03FCF8
:10E690001FFFFBFFCFFE3C00F003C00F003C00F06B
:10E6A00003C00003E00FFC0FFF87C7C780F3C07BE8
:10E6B000C01FE00FF007F803FC01FE04F787F3C367
:10E6C000F8F0F87FFC1FFF83F1800000FFF8FFFCEB
:10E6D000FFFCF03EF01EF01EF01EF03CFFF8FFF0D5
:10E6E000FFF8F03CF03CF03CF03CF03CF03CF01F1C
:10E6F0000FC07FE1FFE7C3EF03DE003C007F007F38
:10E70000F03FF80FF801F001FE03DE0FBFFE3FF807
:10E710001FC0FFFFFFFFF0F00F00F00F00F00F0031
:10E72000F00F00F00F00F00F00F00F00F0F03FC00E
:10E73000FF03FC0FF03FC0FF03FC0FF03FC0FF03DF
:10E74000FC0FF03FC0F7879FFE3FF03F00700EF0D8
:10E750003DE079C0E381C787870E0E1C1E781CE060
:10E7600039C073807E00FC01F801E003C0078070AF
:10E77000381CE0F079E1F0F3C3E1E387C3870F874A
:10E780000E3B9E1E77381CEE7039CCE07399C06E3C
:10E790003F00FC7E01F8FC03F0F803E1E00783C0D2
:10E7A0000F0780F03CF0F9E1E1E783CF03FC03F0D1
:10E7B00007E007800F003F00FF01FE079E0F1E3C91
:10E7C0003CF83DE078F01E781E783C3C3C3C781EDE
:10E7D000780E700FF007E007E003C003C003C0032A
:10E7E000C003C003C003C003C0FFFFFFFFFE01F072
:10E7F0000F00F00F00F807807807807C03C03C030F
:10E80000C01FFFFFFFFFC0FFFFFCF3CF3CF3CF3C77
:10E81000F3CF3CF3CF3CFFFFC0C1810306040C18CB
:10E8200010306040C1810306FFFFCF3CF3CF3CF3C3
:10E83000CF3CF3CF3CF3CFFFFFC00F00F00F01F848
:10E840001B839C39C30C70E70EE070FFFFFFFCE6F2
:10E85000301F83FF1FFDE1E00F03F9FFDF1EF0F71C
:10E860008FBFFCFFE3CF80F007803C01E00F007B0F
:10E87000C3FF9FFEF8F783FC1FE0FF07F83FE3DFCD
:10E88000FEFFE7BE000F83FE7FF78FF07F00F00FE3
:10E8900000F0778F7FF3FE0F80007803C01E00F03A
:10E8A000078FBCFFEFFF78FF83FC1FE0FF07F83DF9
:10E8B000E3EFFF3FF8FBC01F81FE1FF9F1CF077F99
:10E8C000FBFFDE00F003C39FFC7FC0F8003EFDFBB2
:10E8D000C79FBF3C78F1E3C78F1E3C78F01E79FBE1
:10E8E000DFFEF1FF07F83FC1FE0FF07FC7DFFE7FBD
:10E8F000F1F7803C01FF1E7FF0FE00F00F00F00FEB
:10E9000000F00F7CFFEFFFF9FF0FF0FF0FF0FF0F9C
:10E91000F0FF0FF0FF0FFFF00FFFFFFFFFFFFF3CC7
:10E92000F3C000F3CF3CF3CF3CF3CF3CF3CFFFFF7A
:10E9300080F00F00F00F00F00F0FF1EF3CF78FF0B9
:10E94000FF0FF8FF8F3CF1CF1EF0EF0FFFFFFFFF2F
:10E95000FFFFFFFFFFF78F9FFBFBFFFFFCF8FF1E92
:10E960001FE3C3FC787F8F0FF1E1FE3C3FC787F8C0
:10E97000F0FF1E1EF7CFFEFFFF9FF0FF0FF0FF0F0F
:10E98000F0FF0FF0FF0FF0F00F81FF1FFCF1EF071A
:10E99000F83FC1FE0FF07BC79FFC7FC0F800F7C7B0
:10E9A000FF3FFDF1EF07F83FC1FE0FF07FC7BFFD4E
:10E9B000FFCF787803C01E00F00780000F79FFDFDB
:10E9C000FEF1FF07F83FC1FE0FF07BC7DFFE7FF1CE
:10E9D000F7803C01E00F007803C0F3F7FFF8F0F098
:10E9E000F0F0F0F0F0F0F01F87FCFFEF0FF80FF001
:10E9F0007FE0FF01FF0FFFE7FE1F8079E7BFFDE724
:10EA00009E79E79E7DF3C0F0FF0FF0FF0FF0FF0F40
:10EA1000F0FF0FF0FF1FFFF7FF3EF0F07B839E1C1F
:10EA2000F1E38E1C707783B81DC07E03E01F007079
:10EA300000F0E1DC78771F3DE7CF79B38E6CE3BB64
:10EA400038EEFC1F3F07C7C1F1F07C780E1E00783E
:10EA5000F3C78F783B81FC07C01E01F01FC0EF0F8A
:10EA600078F1E78700F07B839E1C71E38E1E707344
:10EA700083B81FC07E03E00F007003803C07C03ED8
:10EA800001E000FFFFFFFC0F0783C1E0F0783C0FBF
:10EA9000FFFFFFC01CF3CE38E38E38E3BCF0E38EFB
:10EAA00038E38E3CF1C0FFFFFFFFFFF0E38F1C71E6
:10EAB000C71C71C70F3DC71C71C71CF3CE00780F70
:10EAC000E0CF307F01E0000088EA3F0290E73F029C
:10EAD000207E070000000000003E5B4F5B3E3E6B67
:10EAE0004F6B3E1C3E7C3E1C183C7E3C181C577DE8
:10EAF000571C1C5E7F5E1C00183C1800FFE7C3E734
:10EB0000FF0018241800FFE7DBE7FF30483A060E45
:10EB10002629792926407F050507407F05253F5A8C
:10EB20003CE73C5A7F3E1C1C08081C1C3E7F1422FC
:10EB30007F22145F5F005F5F06097F017F006689A7
:10EB4000956A606060606094A2FFA29408047E04ED
:10EB50000810207E201008082A1C08081C2A080813
:10EB60001E101010100C1E0C1E0C30383E383006D3
:10EB70000E3E0E06000000000000005F00000007CF
:10EB8000000700147F147F14242A7F2A12231308FD
:10EB9000646236495620500008070300001C2241D9
:10EBA000000041221C002A1C7F1C2A08083E08087D
:10EBB000008070300008080808080000606000202D
:10EBC000100804023E5149453E00427F4000724910
:10EBD0004949462141494D331814127F10274545B4
:10EBE00045393C4A494931412111090736494949CA
:10EBF00036464949291E0000140000004034000038
:10EC000000081422411414141414004122140802A0
:10EC1000015909063E415D594E7C1211127C7F4913
:10EC20004949363E414141227F4141413E7F494968
:10EC300049417F090909013E414151737F08080894
:10EC40007F00417F41002040413F017F0814224165
:10EC50007F404040407F021C027F7F0408107F3EBF
:10EC60004141413E7F090909063E4151215E7F092C
:10EC7000192946264949493203017F01033F404093
:10EC8000403F1F2040201F3F4038403F631408147E
:10EC90006303047804036159494D43007F414141B6
:10ECA0000204081020004141417F04020102044097
:10ECB00040404040000307080020545478407F281B
:10ECC0004444383844444428384444287F38545411
:10ECD000541800087E090218A4A49C787F08040434
:10ECE0007800447D40002040403D007F10284400D3
:10ECF00000417F40007C047804787C080404783864
:10ED000044444438FC1824241818242418FC7C0893
:10ED1000040408485454542404043F44243C404010
:10ED2000207C1C2040201C3C4030403C44281028C3
:10ED3000444C9090907C4464544C4400083641000C
:10ED40000000770000004136080002010204023C86
:10ED50002623263C1EA1A161123A4040207A385455
:10ED600054555921555579412254547842215554CE
:10ED7000784020545579400C1E5272123955555521
:10ED800059395454545939555454580000457C410C
:10ED90000002457D420001457C407D1211127DF04C
:10EDA000282528F07C545545002054547C547C0A76
:10EDB000097F4932494949323A4444443A324A483F
:10EDC00048303A4141217A3A42402078009DA0A043
:10EDD0007D3D4242423D3D4040403D3C24FF242495
:10EDE000487E4943662B2FFC2F2BFF0929F620C0B4
:10EDF000887E090320545479410000447D41304805
:10EE0000484A32384040227A007A0A0A727D0D1947
:10EE1000317D2629292F28262929292630484D40A9
:10EE200020380808080808080808382F10C8ACBAA5
:10EE30002F102834FA00007B000008142A14222224
:10EE4000142A14085500550055AA55AA55AAFF556D
:10EE5000FF55FF000000FF00101010FF00141414F5
:10EE6000FF001010FF00FF1010F010F0141414FC3D
:10EE7000001414F700FF0000FF00FF1414F404FC5A
:10EE8000141417101F10101F101F1414141F00103B
:10EE90001010F0000000001F101010101F101010B4
:10EEA00010F010000000FF101010101010101010C3
:10EEB000FF10000000FF140000FF00FF00001F1003
:10EEC000170000FC04F414141710171414F404F4BD
:10EED0000000FF00F714141414141414F700F714AE
:10EEE0001414171410101F101F141414F4141010FD
:10EEF000F010F000001F101F0000001F14000000A1
:10EF0000FC140000F010F01010FF10FF141414FF98
:10EF1000141010101F00000000F010FFFFFFFFFF93
:10EF2000F0F0F0F0F0FFFFFF0000000000FFFF0F27
:10EF30000F0F0F0F3844443844FC4A4A4A347E02CB
:10EF4000020606027E027E0263554941633844444C
:10EF50003C04407E201E2006027E020299A5E7A501
:10EF6000991C2A492A1C4C7201724C304A4D4D3072
:10EF70003048784830BC625A463D3E494949007E97
:10EF80000101017E2A2A2A2A2A44445F444440512E
:10EF90004A444040444A51400000FF0103E080FFE2
:10EFA000000008086B6B083612362436060F090F6E
:10EFB00006000018180000001010003040FF01018A
:10EFC000001F01011E00191D1712003C3C3C3C00B3
:10EFD0000000000000000000000000000000000031
:10EFE00000000000ADC33F0211DB3F02ADB63F029F
:10EFF0005FBE3F0261BE3F0293BE3F026FBE3F0253
:10F0000081BE3F02A1BD3F025FBE3F0289C03F02F9
:10F0100087C03F02ABBE3F02E9BE3F0223BF3F02B3
:10F0200069BF3F0285BF3F0207C03F0200000000EA
:10F03000000000000000000000000000ADC33F021F
:10F0400011DB3F0251CC3F02E7C63F0213CC3F0227
:10F0500007C83F02BFCA3F0267CA3F02A1BD3F02C5
:10F0600013C73F0289C03F028DCB3F02EBC93F026D
:10F070006BC93F02A7C83F0269BF3F0285BF3F027D
:10F0800007C03F02ADB63F02ADB63F020901809610
:10F090001180FF3A81550A3601082A04000000F069
:10F0A0002B04000000F021800A13800A2980FF0051
:10F0B000000000000000000017CD3F027FCD3F029E
:10F0C000ADC33F0211DB3F0251CC3F02E7C63F0216
:10F0D00013CC3F0207C83F02BFCA3F0267CA3F02C4
:10F0E000A1BD3F0213C73F0219CD3F028DCB3F02A6
:10F0F000EBC93F026BC93F02A7C83F0269BF3F028D
:10F1000085BF3F0207C03F0249CE3F0269CE3F02A2
:10F110000000000000000000D5CD3F02BBCE3F0242
:10F12000ADC33F0211DB3F0251CC3F02E7C63F02B5
:10F1300013CC3F0207C83F02BFCA3F0267CA3F0263
:10F14000A1BD3F0213C73F02D7CD3F028DCB3F0287
:10F15000EBC93F026BC93F02A7C83F0269BF3F022C
:10F1600085BF3F0207C03F0249CE3F0269CE3F0242
:10F1700000000000000000007BD73F0271D73F0273
:10F1800067D73F025DD73F0251D73F0245D73F02C5
:10F19000EDD93F02F5D93F0239D73F0231D73F02BF
:10F1A00027D73F021DD73F0225DA3F0200000000AB
:10F1B0000000000099D73F02E3D73F02BBD73F02D0
:10F1C0009BD73F02C3D73F02CBD73F02D3D73F02E3
:10F1D000DBD73F020000000000000000BDD83F0266
:10F1E000ADD83F02AFD83F02617070000000000050
:10F1F00000000000ADD93F02B7D93F02C1D93F029C
:10F20000CBD93F02D5D93F02E1D93F02EDD93F0228
:10F21000F5D93F02FDD93F0209DA3F0211DA3F0278
:10F220001BDA3F0225DA3F026E616E00696E6600EE
:10F230006F7666002E0000081018202830382559F7
:10F240002D256D2D25645425483A254D3A25532505
:10F250007A0061736374696D65000000000000004E
:10F260000000000031DF3F029DDF3F0275DF3F02FB
:10F2700011DB3F0245DF3F0261DF3F0253DF3F0208
:10F280006FDF3F0233DF3F0237DF3F020000000045
:10F2900000000000E1DF3F0249E03F021FE03F02C3
:10F2A00011DB3F0211E03F02E3DF3F02F3DF3F02E9
:10F2B00043E03F0203E03F02DBDF3F0200000000CB
:10F2C000000000003FE13F0235E13F022BE13F0239
:10F2D000E1E03F021FE13F0213E13F02EDD93F02AF
:10F2E000F5D93F0207E13F02FFE03F02F5E03F02B0
:10F2F000EBE03F0225DA3F02005245454E54206DB7
:10F30000616C6C6F6320737563636565646564002D
:10F310002F746D702F6A656E6B696E732D47434352
:10F320002D31302D706970656C696E652D34385FD4
:10F3300032303230313132345F313630363138307C
:10F340003633392F7372632F6E65776C69622F6E57
:10F3500065776C69622F6C6962632F7374646C6982
:10F36000622F72616E642E63000000002DBA3F02AE
:10F370000DD73F0285D73F029DD93F02FDDA3F02FC
:10F3800089DD3F02F9DE3F021DDF3F0249E13F0216
:10F390000000000219000000010000001A04000033
:10F3A000B6030000B2FE3F02A0AD0710000000004F
:10F3B000000000000000000000000000000000004D
:10F3C000000000000000000000000000000000003D
:10F3D000000000000000000000000000000000002D
:10F3E000000000000000000000000000000000001D
:10F3F000000000000000000000000000000000000D
:10F40000000000000000000000000000E4AF071052
:04F4100000000000F8
:10FFBE000200100000A05F0888A05F08E8AC3F02B6
:10FFCE0001000A00FFFFFFFFFFFF00000102030414
:10FFDE0005060708090A0B0C0D0E0F10111213144B
:0EFFEE0015161718191A1B1C1D1E1F203E0089
:04FFFC0078563412ED
:04000005085FA018D8
:00000001FF
