:02000002B0004C
:1040000000400B00F28F0B00000006000C000502C0
:08401000040118150000000076
:0440180038760B00EB
:10401C0081F0004102E000BF83F0004330B54FEA6D
:10402C0041044FEA430594EA050F08BF90EA020FDA
:10403C001FBF54EA000C55EA020C7FEA645C7FEA6D
:10404C00655C00F0E2804FEA5454D4EB5555B8BF90
:10405C006D420CDD2C4480EA020281EA030382EA01
:10406C00000083EA010180EA020281EA0303362D93
:10407C0088BF30BD11F0004F4FEA01314FF4801C66
:10408C004CEA113102D0404261EB410113F0004F78
:10409C004FEA03334CEA133302D0524263EB43032F
:1040AC0094EA050F00F0A780A4F10104D5F1200ECD
:1040BC000DDB02FA0EFC22FA05F2801841F1000128
:1040CC0003FA0EF2801843FA05F359410EE0A5F1FC
:1040DC0020050EF1200E012A03FA0EFC28BF4CF02D
:1040EC00020C43FA05F3C01851EBE37101F00045E3
:1040FC0007D54FF0000EDCF1000C7EEB00006EEBF0
:10410C000101B1F5801F1BD3B1F5001F0CD3490879
:10411C005FEA30004FEA3C0C04F101044FEA4452D0
:10412C0012F5800F80F09A80BCF1004F08BF5FEA57
:10413C00500C50F1000041EB045141EA050130BD37
:10414C005FEA4C0C404141EB0101013C28BFB1F549
:10415C00801FE9D291F0000F04BF01460020B1FA94
:10416C0081F308BF2033A3F10B03B3F120020CDA67
:10417C000C3208DD02F1140CC2F10C0201FA0CF045
:10418C0021FA02F10CE002F11402D8BFC2F1200CAA
:10419C0001FA02F120FA0CFCDCBF41EA0C01904060
:1041AC00E41AA2BF01EB0451294330BD6FEA0404A9
:1041BC001F3C1CDA0C340EDC04F11404C4F1200294
:1041CC0020FA04F001FA02F340EA030021FA04F3A6
:1041DC0045EA030130BDC4F10C04C4F1200220FAFD
:1041EC0002F001FA04F340EA0300294630BD21FA3B
:1041FC0004F0294630BD94F0000F83F4801306BF01
:10420C0081F480110134013D4EE77FEA645C18BFF4
:10421C007FEA655C29D094EA050F08BF90EA020F8B
:10422C0005D054EA000C04BF1946104630BD91EA83
:10423C00030F1EBF0021002030BD5FEA545C05D186
:10424C004000494128BF41F0004130BD14F58004C5
:10425C003CBF01F5801130BD01F0004545F0FE4139
:10426C0041F470014FF0000030BD7FEA645C1ABF6E
:10427C00194610467FEA655C1CBF0B46024650EAA5
:10428C00013406BF52EA033591EA030F41F40021D1
:10429C0030BD00BF90F0000F04BF0021704730B557
:1042AC004FF4806404F132044FF000054FF000012C
:1042BC0050E700BF90F0000F04BF0021704730B5ED
:1042CC004FF4806404F1320410F0004548BF4042C2
:1042DC004FF000013EE700BF42004FEAE2014FEA17
:1042EC0031014FEA02701FBF12F07F4393F07F4FF2
:1042FC0081F06051704732F07F4208BF704793F0F5
:10430C007F4F04BF41F40021704730B54FF4607407
:10431C0001F0004521F000411CE700BF50EA01020A
:10432C0008BF704730B54FF000050AE050EA0102B3
:10433C0008BF704730B511F0004502D5404261EB23
:10434C0041014FF4806404F132045FEA915C3FF464
:10435C00D8AE4FF003025FEADC0C18BF03325FEA01
:10436C00DC0C18BF033202EBDC02C2F1200300FAB2
:10437C0003FC20FA02F001FA03FE40EA0E0021FAD7
:10438C0002F11444BDE600BF70B54FF0FF0C4CF4C5
:10439C00E06C1CEA11541DBF1CEA135594EA0C0F77
:1043AC0095EA0C0F00F0DEF82C4481EA030621EAB2
:1043BC004C5123EA4C5350EA013518BF52EA0335ED
:1043CC0041F4801143F4801338D0A0FB02CE4FF09F
:1043DC000005E1FB02E506F00042E0FB03E54FF0CF
:1043EC000006E1FB03569CF0000F18BF4EF0010EC7
:1043FC00A4F1FF04B6F5007F64F5407404D25FEAC3
:10440C004E0E6D4146EB060642EAC62141EA555175
:10441C004FEAC52040EA5E504FEACE2EB4F1FD0CB7
:10442C0088BFBCF5E06F1ED8BEF1004F08BF5FEA35
:10443C00500E50F1000041EB045170BD06F00046E7
:10444C0046EA010140EA020081EA0301B4EB5C0494
:10445C00C2BFD4EB0C0541EA045170BD41F480118C
:10446C004FF0000E013C00F3AB8014F1360FDEBFB1
:10447C00002001F0004170BDC4F10004203C35DA8D
:10448C000C341BDC04F11404C4F1200500FA05F310
:10449C0020FA04F001FA05F240EA020001F00042B1
:1044AC0021F0004110EBD37021FA04F642EB060127
:1044BC005EEA430E08BF20EAD37070BDC4F10C0451
:1044CC00C4F1200500FA04F320FA05F001FA04F215
:1044DC0040EA020001F0004110EBD37041F1000101
:1044EC005EEA430E08BF20EAD37070BDC4F120050C
:1044FC0000FA05F24EEA020E20FA04F301FA05F274
:10450C0043EA020321FA04F001F0004121FA04F21B
:10451C0020EA020000EBD3705EEA430E08BF20EAEB
:10452C00D37070BD94F0000F0FD101F00046400025
:10453C0041EB010111F4801F08BF013CF7D041EAA7
:10454C00060195F0000F18BF704703F000465200AB
:10455C0043EB030313F4801F08BF013DF7D043EA7C
:10456C000603704794EA0C0F0CEA135518BF95EA32
:10457C000C0F0CD050EA410618BF52EA4306D1D1B9
:10458C0081EA030101F000414FF0000070BD50EAD8
:10459C00410606BF1046194652EA430619D094EA62
:1045AC000C0F02D150EA013613D195EA0C0F05D14C
:1045BC0052EA03361CBF104619460AD181EA0301A0
:1045CC0001F0004141F0FE4141F470014FF0000058
:1045DC0070BD41F0FE4141F4780170BD70B54FF0F3
:1045EC00FF0C4CF4E06C1CEA11541DBF1CEA135573
:1045FC0094EA0C0F95EA0C0F00F0A7F8A4EB050455
:10460C0081EA030E52EA03354FEA013100F088804B
:10461C004FEA03334FF0805545EA131343EA126314
:10462C004FEA022245EA111545EA10654FEA0026C9
:10463C000EF000419D4208BF964244F1FD0404F582
:10464C00407402D25B084FEA3202B61A65EB0305DE
:10465C005B084FEA32024FF480104FF4002CB6EB9B
:10466C00020E75EB030E22BFB61A754640EA0C001B
:10467C005B084FEA3202B6EB020E75EB030E22BF5B
:10468C00B61A754640EA5C005B084FEA3202B6EB9C
:10469C00020E75EB030E22BFB61A754640EA9C005B
:1046AC005B084FEA3202B6EB020E75EB030E22BF2B
:1046BC00B61A754640EADC0055EA060E18D04FEAE9
:1046CC00051545EA16754FEA06164FEAC30343EA89
:1046DC0052734FEAC2025FEA1C1CC0D111F4801F56
:1046EC000BD141EA00014FF000004FF0004CB6E74F
:1046FC0011F4801F04BF01430020B4F1FD0C88BFEE
:10470C00BCF5E06F3FF6AFAEB5EB030C04BFB6EBF8
:10471C00020C5FEA500C50F1000041EB045170BDEB
:10472C000EF0004E4EEA113114EB5C04C2BFD4EB18
:10473C000C0541EA045170BD41F480114FF0000E9C
:10474C00013C90E645EA060E8DE60CEA135594EA18
:10475C000C0F08BF95EA0C0F3FF43BAF94EA0C0F1B
:10476C000AD150EA01347FF434AF95EA0C0F7FF490
:10477C0025AF104619462CE795EA0C0F06D152EAE4
:10478C0003353FF4FDAE1046194622E750EA4106C8
:10479C0018BF52EA43067FF4C5AE50EA41047FF4D9
:1047AC000DAF52EA43057FF4EBAE12E74FF0FF3C3E
:1047BC0006E000BF4FF0010C02E000BF4FF0010C0F
:1047CC004DF804CD4FEA410C7FEA6C5C4FEA430C88
:1047DC0018BF7FEA6C5C1BD001B050EA410C0CBFD7
:1047EC0052EA430C91EA030F02BF90EA020F002039
:1047FC00704710F1000F91EA030F58BF994208BFA0
:10480C0090422CBFD8176FEAE37040F0010070475C
:10481C004FEA410C7FEA6C5C02D150EA013C07D1B3
:10482C004FEA430C7FEA6C5CD6D152EA033CD3D0FE
:10483C005DF8040B704700BF8446104662468C46F8
:10484C001946634600E000BF01B5FFF7B7FF00282B
:10485C0048BF10F1000F01BD4DF808EDFFF7F4FF54
:10486C000CBF012000205DF808FB00BF4DF808EDDF
:10487C00FFF7EAFF34BF012000205DF808FB00BF02
:10488C004DF808EDFFF7E0FF94BF012000205DF824
:10489C0008FB00BF4DF808EDFFF7CEFF94BF0120D9
:1048AC0000205DF808FB00BF4DF808EDFFF7C4FFD2
:1048BC0034BF012000205DF808FB00BF4FEA410C1B
:1048CC007FEA6C5C02D150EA013C0AD14FEA430CFE
:1048DC007FEA6C5C02D152EA033C02D14FF000003B
:1048EC0070474FF0010070474FEA410212F5001279
:1048FC0015D211D56FF47873B3EB625212D94FEA1B
:10490C00C12343F0004343EA505311F0004F23FA04
:10491C0002F018BF404270474FF00000704750EA59
:10492C00013005D111F0004008BF6FF00040704716
:10493C004FF00000704700BF4A0011D212F5001270
:10494C0011D20DD56FF47873B3EB62520ED44FEADB
:10495C00C12343F0004343EA505323FA02F070475B
:10496C004FF00000704750EA013002D14FF0FF3099
:10497C0070474FF000007047034613F8012B002AD4
:10498C00FBD1181A0138704709480A49884208B502
:10499C0005D0094A824202D0121A02F09DFD074846
:1049AC00074A0021121A02F0A5FD014808BD00BFFC
:1049BC00BCE50320488F0B0038E6032038E60320C3
:1049CC00F0E7032070B5074E074C02F04DFCA41B1A
:1049DC00A4080025AC4200D170BD56F8043B9847A2
:1049EC000135F7E7008F0B00248F0B0000F044B863
:1049FC0008B500F0C7F9BDE8084002F0EDBB01F0C6
:104A0C007FBE01F085BE000008B5034A03490C20A7
:104A1C0001F0E2FDFEE700BF25630B004C760B00B6
:104A2C000078B0FA80F0400970470123037070479A
:104A3C0070B506460C4615462AB90368BDE87040A9
:104A4C009B68C9B2184700290BDA0A2A09D12D2113
:104A5C0002F0A8F86142EAB23046BDE8704002F0BC
:104A6C00BAB82146F7E710B50446FFF7E1FF204638
:104A7C00BDE8104002F099B810B54FF47A7001F00F
:104A8C005FFE02F023FB1C491C4C02F013FB0021BF
:104A9C00132002F059FC0021122002F055FCF022E8
:104AAC0017484FF4A07101F02DFB1548002100F0C0
:104ABC0007FC1348032101F0E0FA3821114800F0FB
:104ACC00E1F9104800F01CFA2060013005D102F029
:104ADC00FDFA0D4902F075F8FEE70C4B0948196810
:104AEC0000F04EFA2060013005D102F0EFFA0849CF
:104AFC0002F067F8FEE710BDC8C2010060E60320B3
:104B0C0064E6032054E6032061760B00BCE5032029
:104B1C007A760B0070B5114C1149124D204600F0FD
:104B2C007AFE1D21204600F070FE4FF42006002373
:104B3C002968E3760A222046C4E90463FFF778FF6C
:104B4C002661094E4FF0FC23316863610A2220462E
:104B5C00FFF76EFF33682B6070BD00BF64E6032067
:104B6C005C860B004CE6032050E6032037B5244846
:104B7C0001A900F0DBF9234B1860013005D102F0DC
:104B8C00A5FA214902F01DF8FEE7204A204D1368D2
:104B9C00204C022B2AD100232B600123136002F03E
:104BAC0095FA0A222168FFF743FF02F08FFA1A499F
:104BBC0002F007F802F08AFA9DED010A022102F0D8
:104BCC00F1F802F083FA144901F0FBFF134B42F2A7
:104BDC0010701B6890FBF3F001F0B2FD22682B689B
:104BEC009A4201D0FFF796FF03B030BD012B02BFF4
:104BFC00DDED017AFDEEE77AC4ED007ACFE700BF78
:104C0C0054E6032060E603209E760B00C0E50320EB
:104C1C004CE6032050E60320BF760B00BCE50320D6
:104C2C002DE9F047334CDFF8DC90DFF8DCA0324D97
:104C3C00DFF8D880314F2046002100F041FB30498D
:104C4C00204600F0E8FD642001F07AFD6FF0F823B7
:104C5C00204606216361002600F0D7FD4946204618
:104C6C00E676C4F810A001F099FFFA2001F068FD77
:104C7C002046032100F0C9FD29462046C4F81080C7
:104C8C0001F08CFFFA2001F05BFD2046022100F0C0
:104C9C00BCFD29462046276101F080FF4FF47A7055
:104CAC0001F04EFD20460621666100F0AEFD49463E
:104CBC002046E676C4F810A001F070FF642001F0E5
:104CCC003FFD2046032100F0A0FD29462046C4F8F4
:104CDC00108001F063FF642001F032FD20460221B8
:104CEC0000F093FD276129462046BDE8F04701F00E
:104CFC0055BF00BF64E60320E48D0B00E6005A00AC
:104D0C00CC7A0B00C2760B005000C800B4007800BF
:104D1C0010B5132002F042FB154C2060122002F05B
:104D2C003DFB144B144A186012682368134C9342D1
:104D3C000FDD02F0CBF921680A22FFF794FEFFF792
:104D4C0015FF02F0C3F921680A22BDE81040FFF7F5
:104D5C008ABE0B4A12689342F3DA0223236002F0F4
:104D6C00B5F921680A22FFF77EFEFFF759FFE8E745
:104D7C0044E6032048E60320C4E50320C0E50320F5
:104D8C00C8E50320FFF7C4BF10B5094B0022C3E9E7
:104D9C000022A2F580329A60022001F025FCBDE8C9
:104DAC001040044806230522102101F0A1B900BFD0
:104DBC0038E6032064E6032008B5044B186002F0C3
:104DCC001FFB01F051FD002008BD00BFB4E603201D
:104DDC00F8B5054616460C4619B3144F02F010FBF5
:104DEC00396801F077FD02F00BFB036829469B68DC
:104DFC00984702F005FB01F074FD02F001FB3978D5
:104E0C00224601F060FD844205460AD10024AC42E2
:104E1C000ADA02F0F5FA03685B69984730550134F9
:104E2C00F5E74FF0FF30F8BD0020FCE7B4E60320B7
:104E3C0070B5044616460D46F9B102F0E1FA104B76
:104E4C00196801F047FD02F0DBFA036821469B6804
:104E5C0098470024A54207DD02F0D2FA0368315DC1
:104E6C009B6898470134F5E702F0CAFA01F039FD66
:104E7C00003818BF0120404270BD4FF0FF30FBE7F7
:104E8C00B4E603200846FFF797BF08B50068322840
:104E9C001BD006DC01280ED0192818D04FF0FF309B
:104EAC0010E064280FD0C828F8D1032000F0D1F806
:104EBC000130F3D0012000F096F801304FF0FF30B4
:104ECC0018BF002008BD0220F0E70120EEE700200B
:104EDC00ECE708B5012000F0A1F8013002D14FF049
:104EEC00FF3008BD012000F0CFF80130F7D00020D2
:104EFC0000F079F801304FF0FF3018BF0020F0E7D8
:104F0C0008B5012000F054F8013002D14FF0FF3009
:104F1C0008BD0C2001F014FC002000F049F8013011
:104F2C00F4D00C2001F00CFC0020F1E738B504465D
:104F3C0004300D4600F0C3F8431C1CD0B4F9042017
:104F4C00A388DFED0D6A002ABFBFA3F5004307EE6F
:104F5C00903A9FED0A7AF8EEE77AABBF07EE903AFB
:104F6C00C4ED027AF8EE677A77EEC77A002087EE06
:104F7C00A67A85ED007A38BD0000C84200000047D3
:104F8C0010B501600446FFF7A4FF013002D14FF0C9
:104F9C00FF3010BD2046FFF7B3FF0130F7D020469D
:104FAC00FFF773FF01304FF0FF3018BF0020F0E720
:104FBC0013B5044601AA01210C20FFF709FF431C7D
:104FCC000FD09DF8043001AA64F3410301210C2099
:104FDC008DF80430FFF72CFF01304FF0FF3018BF75
:104FEC00002002B010BD13B5044601AA0121042013
:104FFC00FFF7EEFE431C0FD09DF8043001AA64F3BA
:10500C008203012104208DF80430FFF711FF0130D9
:10501C004FF0FF3018BF002002B010BD13B504468E
:10502C0001AA01210420FFF7D3FE431C0FD09DF8E9
:10503C00043001AA64F38613012104208DF8043096
:10504C00FFF7F6FE01304FF0FF3018BF002002B022
:10505C0010BD13B5044601AA01210420FFF7B8FEC8
:10506C00431C0FD09DF8043001AA64F305130121F1
:10507C0004208DF80430FFF7DBFE01304FF0FF30D9
:10508C0018BF002002B010BD13B5044601AA0121BF
:10509C000420FFF79DFE431C0FD09DF8043001AA9D
:1050AC0064F3C303012104208DF80430FFF7C0FE24
:1050BC0001304FF0FF3018BF002002B010BD37B5E3
:1050CC000546002401AA01210620ADF80440FFF793
:1050DC007FFE013003D14FF0FF3003B030BD0DF136
:1050EC00050201210720FFF773FE0130F3D0BDF854
:1050FC0004302B802046F0E72DE9F04F85B01F4699
:10510C00BDF93880BDF83C30A8EB0209A7EB010AC9
:10511C00B9F1000FB8BFC9F10009BAF1000FB8BF5F
:10512C00CAF1000AD14583460C46154604DD3A46C1
:10513C002C4647460D469046BC4205DD2A46454660
:10514C00904622463C4617463E1BB2B20092A8EB54
:10515C00050282EAE271A1EBE271C6F3C03202FAF7
:10516C0086F64545B4BF01224FF0FF32019176100F
:10517C000292BC421CDCDBF800200393D145D2F830
:10518C001880C7BF294622462A4621465846C047A2
:10519C00019A039BB61AB1B236B2002E05DA029A06
:1051AC001544009A56182DB236B2013424B2E0E7F9
:1051BC0005B0BDE8F08F704710B404682469A446AC
:1051CC005DF8044B604730B40468BDF80850029594
:1051DC00A46BA44630BC604730B40468BDF80850DA
:1051EC000295E46BA44630BC604770B4BDF90C501A
:1051FC00BDF810600468CDE90356246CA44670BC5D
:10520C0060472DE9F3411C460368BDF820805B69BB
:10521C0005461646013C34440F4624B298472B6889
:10522C00CDF8048000949C6A28463B4632463946A9
:10523C00A0472B68DB6A284602B0BDE8F04118474E
:10524C002DE9F3411D460368BDF820805B690446D7
:10525C0017460E469847CDE9007822686B1E3344FA
:10526C00956A20461BB23A463146A8472368DB6A4A
:10527C00204602B0BDE8F04118472DE9F3471E4621
:10528C000368BDF928905B69BDF82C800C46054677
:10529C00174698472644B4422B680BDACDF80080A9
:1052AC00D3F820A021464B463A4628460134D04735
:1052BC0024B2F0E7DB6A284602B0BDE8F047184795
:1052CC0013B502680191B0F90E100091146CB0F98D
:1052DC000C3000221146A04702B010BD2DE9F74357
:1052EC0099421646BDF92870BDF82C90026880468C
:1052FC000D461C4613D1BE42C8BF3346CDF828908C
:10530C00C4BF3E461F467B1C946B9B1B1BB2324694
:10531C0029464046A44603B0BDE8F0436047BE4270
:10532C000AD19942C2BF0B4625461C46631CCDF8D8
:10533C002890D46B5B1BE9E753699847CDE900795A
:10534C00D8F8003040469F6A324623462946B84773
:10535C00D8F80030DB6A404603B0BDE8F04318478C
:10536C002DE9F3471D460368BDF82C805B69BDF938
:10537C00289004460F46164698472368CDF80080BF
:10538C00D3F824A032462B4639462046D047236812
:10539C00CDF8008009F1FF323244D3F824A039460D
:1053AC002B46204612B2D0472368CDF80080D3F8A4
:1053BC0020A032464B4639462046D0476B1ED919A1
:1053CC002368CDF800801D6A20464B46324609B250
:1053DC00A8472368DB6A204602B0BDE8F0471847AF
:1053EC00704701F00303B0F90A208376C907B0F9BE
:1053FC00083059BF8381C2818281C381704700000C
:10540C0030B54281C281074A074D01810024818158
:10541C004FF0FF31C0E90512446005600461047768
:10542C00046230BD01010001708B0B002DE9F04FBF
:10543C002DED028B91B01646026ABDF874809DF872
:10544C0078509DF87C4003911F46BDF87030049352
:10545C008346002A40F0C580B0F90C308B4240F3F3
:10546C004C81B0F90E30B34240F34781062313FB55
:10547C000513002B40F3418106EBC403002B40F3D2
:10548C003C81037F1BB9AF2F84BF0137FFB2DBF820
:10549C00003058465B699847052209920022059214
:1054AC00984A07EB8703D3180C93B3B20693059A6B
:1054BC000C9B9B5C0793ABB20B93BDF80C30089321
:1054CC00039B02FB05F919FA83F90FFA89F308EE2D
:1054DC00103A08230A93039B02EB030A4FF00009CE
:1054EC000FFA8AFA079ADBF80030D20752D5012D51
:1054FC001FFA89F23ED1012C3CD19B6906991F46BB
:10550C00049B0A4412B251465846B84709F10103AC
:10551C004FFA83F9079B5B0807930A9B013B13F037
:10552C00FF030A93DED1059F01377BB20593099BDC
:10553C00013B13F0FF030993B9D1049B43450FD0F2
:10554C00012DDBF800303BD1012C39D10899CDF875
:10555C00008005311C6A3246082309B25846A04720
:10556C00DBF80030DB6A584611B0BDEC028BBDE8AD
:10557C00F04F1847069914FB02F20A440499019162
:10558C000094DB6918EE101A1F4612B22B465846CF
:10559C00B847BBE7049A4245B8D0012D1FFA89F2EF
:1055AC0007D1012C05D19B6906991F460A44434635
:1055BC00A8E70699CDF8048014FB02F20A44DFE751
:1055CC000B9ACDF8048002EB8201089AE4000A449D
:1055DC0011460094DC6932462B4609B25846A04766
:1055EC00BEE7137A516812680B92FF1AFFB201EBF7
:1055FC00C70331F8372006929A780992DA780C9220
:10560C00012D93F9052093F906A00A9201D8012CDB
:10561C0057D9BDF9283008930FFA8AF30793DBF8B2
:10562C00003058465B699847B3B24FF000080E93B0
:10563C001AFA86F3C14647460F930C9B9F428FD2B2
:10564C00079B0E9A3B4403FB0423002205920F9AFE
:10565C001BB202EB070A08EE103A0FFA8AFA43461D
:10566C00099A0599914241D25A1CD2B25B070D920C
:10567C0007D1069B06990B9A01339BB212F8019045
:10568C00069319F0800F12D0012DDBF80030BDF815
:10569C000C101AD1012C18D10A9A9B691144059A45
:1056AC0011441E465246049B09B25846B047059E0B
:1056BC000136F3B24FEA490905935FFA89F90D9B5C
:1056CC00CEE70023CDE90733A9E70598089A0244F1
:1056DC0002FB0511049ACDE90042DB6918EE102A91
:1056EC001E4609B22B465846B047E0E7099B0137E6
:1056FC0098445FFA88F8FFB29FE711B0BDEC028BBB
:10570C00BDE8F08F68860B00F0B5026A85B00446E0
:10571C000B46002A34D10A2908D1438A0282427EE0
:10572C0003EBC2036382012005B0F0BD0D29FAD052
:10573C00E17E007E657E71B1B4F91060062111FB2B
:10574C000061B4F90C60B142C1BFB4F912102282ED
:10575C0001EBC5026282E28A0192A28A0092CDE933
:10576C000205B4F91220B4F910102046FFF75EFEC2
:10577C00237E228A03EB430302EB43032382D2E70B
:10578C000A2907D100230382417E927A438A01FBC6
:10579C000233C7E70D29C6D0157AA942C3D3517A73
:1057AC009942C0D351685D1BEDB201EBC505A878D9
:1057BC0028B3E97819B3E17E267E677E91B195F91D
:1057CC0005100844B4F9101006FB0011B4F90C00D4
:1057DC00814207DD00202082B4F91210927A02FB7C
:1057EC0007126282E28A0192A28A0092CDE90267D4
:1057FC00B4F91220B4F910102046FFF717FE2979DE
:10580C00227E238A01FB0233B8E7012938BF01212C
:10581C00017641767047036A29B113B9438A06337E
:10582C00438201627047002BFBD0438A063BF7E7AB
:10583C00002180B201F099BD012180B201F095BD2B
:10584C00002180B201F091BD012180B201F08DBD2B
:10585C00002180B201F089BD012180B201F085BD2B
:10586C0038B512B2044609B21D46FFF7C9FD0C4B00
:10587C0023609DF9183084F83D309DF9103084F880
:10588C003E3000229DF9143084F83C2084F83F30DF
:10589C002264A4F84420A2646562204638BD00BF8F
:1058AC00C88B0B002DE9F041DFF85880044698F8BE
:1058BC000000BFF35B8F0D4610F0010186B0164659
:1058CC001F460BD140460591FFF7AAF8059928B160
:1058DC000B4801F083FA4046FFF7A7F89DF93430E6
:1058EC0002939DF930303246CDE900732946044BC2
:1058FC002046FFF7B5FF204606B0BDE8F08100BF9B
:10590C00BCE60320B8E60320F8B5494F044690F9ED
:10591C003E00002918BF0F460028164609DB01215E
:10592C0080B201F011FD94F93E00012180B201F02A
:10593C001CFD94F93F00012180B201F005FD94F9A2
:10594C003F00012180B201F010FD94F83C5085BB62
:10595C000123606A84F82C50276384F8343084F86F
:10596C003560A66301F044FA94F93D0000285EDB33
:10597C00012180B201F0E8FC94F93D00012180B2D4
:10598C0001F0F3FC642000F0DBFE94F93D000021F3
:10599C0080B201F0EAFC642000F0D2FE94F93D00E4
:1059AC00012180B201F0E1FCBDE8F840C82000F014
:1059BC00C7BE012D20D194F92400294680B201F0F4
:1059CC00C3FC94F92400002180B201F0CEFC94F9C0
:1059DC002600294680B201F0B7FC94F9260000217C
:1059EC0080B201F0C2FC94F925000028BCDB002138
:1059FC0080B201F0A9FCB7E794F92500012180B22F
:105A0C0001F0A2FC94F92500012180B201F0ADFC5B
:105A1C0094F926000028A7DB012180B201F094FC48
:105A2C0094F92600012180B201F09FFC9CE7F8BD9F
:105A3C000024F40090F83C3023B900F12801406AAE
:105A4C0001F004BA704710B50446FFF7F3FF94F960
:105A5C003E00002805DBBDE81040002180B201F0BB
:105A6C0084BC10BD90F83C3013B9406A01F0D4B935
:105A7C00704710B5044690F93E00002803DB012165
:105A8C0080B201F072FC2046FFF7ECFF10BD10B5A0
:105A9C00044690F92500002180B201F066FC94F9CF
:105AAC0025000121BDE8104080B201F05EBC2DE95B
:105ABC00F04105460E4614467AB190F83C304FEA58
:105ACC001128CFB25BB94146686A01F02DFA686AB9
:105ADC00394601F029FA013CF5D1BDE8F081012BE2
:105AEC001ED1B046102718F4004F95F9240014D09D
:105AFC00FFF7AAFE95F92600013FFFF79DFE4FEA3E
:105B0C00480895F92600BFB2FFF792FE1FFA88F8F5
:105B1C00002FE8D1013CE4D1DFE7FFF791FEE9E784
:105B2C00B845DAD02846FFF7B2FF013CFAD1D4E7EA
:105B3C002DE9F3411D46BDF8203000930368BDF9F3
:105B4C002070D3F85480BDF82460ABB292B289B205
:105B5C000446C04705FB07F23146204602B0BDE8BB
:105B6C00F041FFF7A4BF2DE9F341BDF92040002B14
:105B7C0046D0002C44D0002B05DA013111FA83F108
:105B8C005B4209B21BB2B0F90C608E4238DD002CBE
:105B9C0005DA013212FA84F2644212B224B2B0F97C
:105BAC000E5095422CDD01EB03081FFA88F808F122
:105BBC00FF3C0FFA8CFCBCF1000F21DB02EB040E56
:105BCC001FFA8EFE0EF1FF373FB2002F18DB0029B3
:105BDC00BCBF0FFA88F30021002ABCBF0FFA8EF469
:105BEC0000226645DCBF731A1BB2BD42D8BFAC1A8B
:105BFC00BDF82450D8BF24B2CDE90045FFF798FF7B
:105C0C0002B0BDE8F0812DE9F7438046BDF928705C
:105C1C00BDF82C900C4615461E46002B52D0002F7A
:105C2C0050D0002B05DA013414FA83F45E4224B20E
:105C3C0036B2B8F90C30A34244DD002F05DA013539
:105C4C0015FA87F57F422DB23FB2B8F90E20AA4261
:105C5C0038DD04EB060E1FFA8EFE0EF1FF3000B29B
:105C6C0000282FDB05EB070C1FFA8CFC0CF1FF3125
:105C7C0009B2002926DB002CBCBF0FFA8EF60024DB
:105C8C00002DBCBF0FFA8CF700258342DCBF1B1B19
:105C9C001EB28A42D8F80030DCBF521B17B2404605
:105CAC005B69984733464046CDE900792A46214640
:105CBC00FFF73EFFD8F80030DB6A404603B0BDE882
:105CCC00F043184703B0BDE8F0832DE9F341171EEC
:105CDC00BDF8208006460C461D4633DBB0F90E306D
:105CEC00BB422FDD002D2DD005DA013414FA85F4DA
:105CFC006D4224B22DB2B6F90C30A34222DD6119EB
:105D0C0089B24A1E12B2002A1CDB002CBCBF0DB299
:105D1C0000249342DCBF1B1B1DB2336830465B6909
:105D2C0098470123009330462B46CDF804803A4621
:105D3C002146FFF7FDFE3368DB6A304602B0BDE852
:105D4C00F041184702B0BDE8F0812DE9F3410F1E78
:105D5C00BDF82080064614461D4631DBB0F90C30E8
:105D6C00BB422DDD002D2BD005DA013414FA85F45D
:105D7C006D4224B22DB2B6F90E30A34220DD61196A
:105D8C0089B24A1E12B2002A1ADB002CBCBF0DB21B
:105D9C0000249342DCBF1B1B1DB2336830465B6989
:105DAC0098473046CDE90058012322463946FFF783
:105DBC00BFFE3368DB6A304602B0BDE8F0411847DD
:105DCC0002B0BDE8F081002A73B527DBB0F90E40B4
:105DDC00944223DD002B21D005DA013111FA83F135
:105DEC005B4209B21BB2B0F90C408C4216DDCE18E6
:105DFC00B6B2751E2DB2002D10DB0029BCBF33B21C
:105E0C000021AC42D8BF631ABDF8184001944FF082
:105E1C000104D8BF1BB20094FFF78AFE02B070BD1C
:105E2C0073B5002926DBB0F90C408C4222DD002B27
:105E3C0020D005DA013212FA83F25B4212B21BB2A5
:105E4C00B0F90E40944215DDD618B6B2751E2DB2BF
:105E5C00002D0FDB002ABCBF33B20022AC42D8BFEE
:105E6C00A31ABDF81840D8BF1BB2CDE900340123EA
:105E7C00FFF75EFE02B070BD70B590F83C30044682
:105E8C000D4623B9BDE87040406A01F04DB8012BB6
:105E9C0018D108262B0694F9240010D5FFF7D4FC52
:105EAC0094F92600FFF7C8FC013E94F92600FFF791
:105EBC00BFFC6D0016F0FF06EDB2EBD170BDFFF725
:105ECC00BFFCEDE7FFF7E3FDF8E713B5044690F9E7
:105EDC003F000191FFF7BCFC20460199FFF7CCFF76
:105EEC0094F93F0002B0BDE81040FFF7B5BC70B5A7
:105EFC0003680D465B690446984755B194F8441005
:105F0C002046FFF7E2FF23682046DB6ABDE87040BD
:105F1C00184794F84510F3E770B590F83C300546F7
:105F2C000C464BB9090A406A00F0FEFF686AE1B200
:105F3C00BDE8704000F0F8BF012B18D110262304E7
:105F4C0095F9240010D5FFF77FFC95F92600FFF793
:105F5C0073FC013E95F92600FFF76AFC640016F00D
:105F6C00FF06A4B2EBD170BDFFF76AFCEDE7FFF7BB
:105F7C008EFDF8E7F7B5002904461E4617DBB0F98D
:105F8C000C308B4213DD002A11DBB0F90E3093423A
:105F9C000DDD0568012300936F6D92B289B2B8478D
:105FAC003146204603B0BDE8F040FFF7B5BF03B063
:105FBC00F0BD2DE9F3410D1E044616461F4620DBAD
:105FCC00B0F90C30AB421CDD002A1ADBB0F90E30F4
:105FDC00934216DD03685B6998472268012300939E
:105FEC00D2F85480A9B2B2B22046C04720463946F6
:105FFC00FFF792FF2368DB6A204602B0BDE8F04150
:10600C00184702B0BDE8F08170B590F83C300446FA
:10601C000D469BB9090E406A00F086FFC5F3074197
:10602C00606A00F081FFC5F30721606A00F07CFF15
:10603C00606AE9B2BDE8704000F076BF012B18D160
:10604C002026002D94F9240010DAFFF7FDFB94F9BB
:10605C002600FFF7F1FB013E94F92600FFF7E8FB61
:10606C0016F0FF064FEA4505EBD170BDFFF7E8FBD4
:10607C00EDE7FFF70CFDF8E7704701F0030102298B
:10608C0070B50446817624D0032925D0012990F8D7
:10609C004C3090F84D201DBFA0F84030A0F84220A5
:1060AC00C025A0F8402004BFA0F84230A0252368EA
:1060BC0020465B69984720463621FFF706FF2046AD
:1060CC002946FFF7D9FE23682046DB6ABDE87040FD
:1060DC00184700250564EAE7002303646025E6E71A
:1060EC0010B550210446FEF78CFC204610BD000074
:1060FC0010B5044600F09AF8014B2360204610BD01
:10610C004C8C0B0010B50021044600F0E6F800237F
:10611C00A4F84C30064BE3602046064900F09AF890
:10612C00236820461B6BBDE810400121184700BFB7
:10613C004001F000208C0B00704770B501F003019A
:10614C00022990F84C2090F84D308176044620D0EE
:10615C00032924D001291DBFA0F84020A0F842300B
:10616C00C025A0F8422004BFA0F84030A025236829
:10617C0020465B69984720463621FFF7A6FE20464D
:10618C002946FFF779FE23682046DB6ABDE870409C
:10619C001847A0F84020A0F842300025E7E7A0F807
:1061AC004220A0F840306025E1E70000064B0029B2
:1061BC0018BF0B4642F22101A0F844108364002260
:1061CC001946FFF7A1BB00BF0024F400F8B5B0F8E6
:1061DC004070B0F84250BDF81860394413FA81F79A
:1061EC002A4416FA82F5013F044647EA0147013D6D
:1061FC002A2145EA0245FFF768FE39462046FFF79B
:10620C0003FF20462B21FFF760FE29462046FFF7AF
:10621C00FBFE20462C21BDE8F840FFF756BE10B51A
:10622C0050210446FEF7EDFB204610BD13B5CDE919
:10623C0000230B46A02280210446FFF733FB044BBE
:10624C00236020460023A4F84C3002B010BD00BFE0
:10625C00AC8C0B002DE9F04703680C465B690546D6
:10626C00984714F8017B97B32646284616F8021B6C
:10627C00FFF72BFE94F8019009F07F084446B246D4
:10628C00013CE4B2FF2C05D01AF8011B2846FFF79D
:10629C00F3FDF5E795F93E00012180B201F065F8B8
:1062AC0095F93E00002180B201F05FF819F0800FE3
:1062BC0006EB080408D016F80800FF2808BF4FF4B6
:1062CC00FA70013400F03CFA013FFFB2CBE72B68C7
:1062DC002846DB6ABDE8F047184738B503680D4619
:1062EC001B6D0021044698472DB129462046BDE878
:1062FC003840FFF7AFBF38BD08B5024B1B685B6C6D
:10630C00019308BD4802030008B5024B1B685B688B
:10631C00019308BD1802030008B5024B1B68DB682B
:10632C00019308BD1802030008B5024B1B685B699A
:10633C00019308BD1802030008B5024B1B685B688B
:10634C00019308BD2C02030008B5024B1B689B6827
:10635C00019308BD2C02030008B5024B1B68DB68D7
:10636C00019308BD2C02030008B5024B1B681B6986
:10637C00019308BD2C02030008B5024B1B681B6B74
:10638C00019308BD2C02030008B5024B1B68DB68A7
:10639C00019308BD2802030008B5024B1B689B69DA
:1063AC00019308BD2802030008B5024B1B68DB698A
:1063BC00019308BD2802030008B5024B1B681B6A39
:1063CC00019308BD2802030008B5024B1B685B6AE9
:1063DC00019308BD2802030008B5024B1B689B6A99
:1063EC00019308BD2802030008B5024B1B68DB6A49
:1063FC00019308BD2802030008B5024B1B681B6BF8
:10640C00019308BD2802030008B5024B1B685B6BA7
:10641C00019308BD2802030008B5024B1B681B6CD6
:10642C00019308BD2802030008B5024B1B681B6DC5
:10643C00019308BD2802030008B5024B1B685B6979
:10644C00019308BD6402030008B5024B1B689B68EE
:10645C00019308BD6802030008B5024B1B68DB689A
:10646C00019308BD6802030008B5024B1B681B684A
:10647C00019308BD3002030008B5024B1B685B6931
:10648C00019308BD3002030008B5024B1B68DB69A1
:10649C00019308BD3002030008B5024B1B681B6A50
:1064AC00019308BD3002030008B5024B1B685B6A00
:1064BC00019308BD3002030008B5024B1B68DB6B6F
:1064CC00019308BD3002030008B5024B1B681B6C1E
:1064DC00019308BD3002030008B5024B1B685B6CCE
:1064EC00019308BD3002030008B5024B1B68DB6842
:1064FC00019308BD3C02030008B5024B1B681B69E5
:10650C00019308BD3C02030008B5024B1B685B6994
:10651C00019308BD3C02030008B5024B1B689B6944
:10652C00019308BD3C02030008B5024B1B68DB69F4
:10653C00019308BD3C02030008B5024B1B681B6AA3
:10654C00019308BD3C02030008B5024B1B689B6A13
:10655C00019308BD3C02030008B5024B1B681B6C81
:10656C00019308BD3C02030008B5024B1B681B6875
:10657C00019308BD4C02030008B5024B1B685B6815
:10658C00019308BD4C02030008B5024B1B681B6944
:10659C00019308BD4C02030008B5024B1B685B69F4
:1065AC00019308BD4C02030008B5024B1B689B69A4
:1065BC00019308BD4C02030008B5024B1B68DB6954
:1065CC00019308BD4C02030008B5024B1B681B6A03
:1065DC00019308BD4C02030008B5024B1B685B6BB2
:1065EC00019308BD6002030008B5024B1B685B6891
:1065FC00019308BD2002030008B5024B1B685B69C0
:10660C00019308BD2002030008B5034B1B68D3F8A7
:10661C008830019308BD00002002030008B5034B2D
:10662C001B68D3F89430019308BD000020020300CE
:10663C0008B5024B1B68DB6B019308BD44020300D9
:10664C0008B5024B1B685B68019308BD4002030050
:10665C0008B5024B1B689B68019308BD4002030000
:10666C0008B5024B1B68DB68019308BD40020300B0
:10667C0008B5024B1B681B69019308BD400203005F
:10668C0008B5024B1B685B69019308BD400203000F
:10669C0008B5024B1B689B69019308BD40020300BF
:1066AC0008B5024B1B68DB69019308BD400203006F
:1066BC0008B5024B1B681B6A019308BD400203001E
:1066CC0008B5024B1B681B6B019308BD400203000D
:1066DC0008B5024B1B685B6B019308BD40020300BD
:1066EC0008B5024B1B681B6C019308BD40020300EC
:1066FC0008B5024B1B685B6C019308BD400203009C
:10670C0008B5024B1B681B68019308BD1C020300F3
:10671C0008B5024B1B685B68019308BD1C020300A3
:10672C0008B5024B1B681B6C019308BD1C020300CF
:10673C0008B5024B1B685B6C019308BD1C0203007F
:10674C000021FFF759BF0000024800230360FFF748
:10675C00D3BD00BFC4E60320002240681146FFF7FA
:10676C00A7BF002240681146FFF7B2BF4068002265
:10677C00FFF7A6BF4068002281F00101FFF790BF30
:10678C00002340681A461946FFF782BF0023406871
:10679C001A461946FFF774BF002240681146FFF7EE
:1067AC0067BF002240681146FFF752BF40680022C5
:1067BC000221FFF755BF002340681A46FFF740BF80
:1067CC00024B03225A60024A1A607047C8E6032043
:1067DC000C8D0B007047F8B5064615460C468F1805
:1067EC00BC4206D0336814F8011B9B6830469847AE
:1067FC00F6E72846F8BD007C0022FFF7DDBD007CE3
:10680C000021FFF7E1BD007C0021FFF7E5BD007C16
:10681C000021FFF7E9BD007C0021FFF7EDBD10B5AD
:10682C0014210446FEF7EDF8204610BD38B5044699
:10683C0015464FF47A730022C4E90123094B2174E5
:10684C00084623602946FFF7E7FDBF3008D16B6986
:10685C00DB0705D56868FFF75BFFE868FFF758FFB3
:10686C00204638BD488D0B000023007C1A46194683
:10687C00FFF78ABD7FB500221423CDE90122ADF8C4
:10688C0004300B788DF808304B680393CB68049375
:10689C00007C0B7A059301A9FFF7C6FD07B05DF8E4
:1068AC0004FB1FB5003B8DF800104FF06401039101
:1068BC0018BF0123694601928DF80830FFF7DAFF03
:1068CC0005B05DF804FB0123FFF7EBBF007C002251
:1068DC00FFF762BDC9B2FFF7F9BF007C0022FFF7DA
:1068EC0063BD0121FFF7F9BF704710B518210446AD
:1068FC00FEF787F8204610BDF0B5037D062B8DB052
:10690C000E4600F104074FF0000412D000F1080508
:10691C0015F8011D0A22304600F05DF9AF4204441F
:10692C0019D0002CF4D02E21304600F03BF9044451
:10693C00EEE72F236A4639460A208DF80040FFF710
:10694C007BFD6846FEF718F833680246DB6869463B
:10695C0030469847044620460DB0F0BD10B5054BA7
:10696C000446112240F8043B002100F0C3FD2046F0
:10697C0010BD00BF708D0B000346074A10B543F8DD
:10698C00042B01F1100251F8044B43F8044B9142D3
:10699C00F9D10A781A7010BD708D0B0010B59DF8E6
:1069AC00084044EA032343EA024242EA0161042319
:1069BC004160037510BD000007B5064B0360CB7832
:1069CC0000938B784A780978FFF7E8FF03B05DF8FD
:1069DC0004FB00BF708D0B00014B024A1A6070471C
:1069EC00D0E603207C8D0B00002340681A46FFF78D
:1069FC0027BE406800220221FFF732BE0022406809
:106A0C001146FFF725BE002240681146FFF730BE45
:106A1C00002340681A461946FFF732BE002340682F
:106A2C001A461946FFF734BE40680021FFF758BEDE
:106A3C0040680021FFF75CBE4068002281F0010134
:106A4C00FFF72EBE40680022FFF73ABE00224068D6
:106A5C001146FFF73DBE002240681146FFF728BEE5
:106A6C002DE9F04395B014460D460746FFF776FF27
:106A7C0000211C220DA8009100F03CFD40230C933A
:106A8C0020466B460CAA0021FFF7E6FC04460028C2
:106A9C004BD1024601216868FFF7EAFD02218046CE
:106AAC0022466868FFF7E4FD009E81462146002ED1
:106ABC003BD0002939D17368022B03D00A2B11D09B
:106ACC00F669F4E7B8F1000FFAD0716906A8043141
:106ADC0007ADFFF771FF0FCD3C1D0FC42B68237062
:106AEC004146EDE7B9F1000FEAD07469102201A814
:106AFC0000F000FD06238DF8143001AD04F10803FD
:106B0C001834186859682A4603C20833A34215463C
:106B1C00F7D101A906A807ADFFF72EFF0FCD3C1D3D
:106B2C000FC42B6823704946CAE70098FFF78CFC0A
:106B3C00384615B0BDE8F083024B034A1A600022B8
:106B4C005A607047D4E60320888D0B00F8B50646D2
:106B5C000D468F180024BD420CD0336815F8011B6C
:106B6C009B6830469847031E01DB1C44F3E7002C5E
:106B7C0008BF1C462046F8BD13B50446084659B15B
:106B8C000191FDF7F9FE23680199DB680246204666
:106B9C0002B0BDE81040184702B010BD08B5FFF7B1
:106BAC00EBFF08BD03689B68184738B50D210546F7
:106BBC00FFF7F8FF0A2104462846FFF7F3FF2044AD
:106BCC0038BD38B50546FFF7D7FF04462846FFF712
:106BDC00ECFF204438BD30B58BB00023012A8DF872
:106BEC00243098BF0A2209AC0D46B1FBF2F101FB2F
:106BFC00125303F0FF03092B94BF30333733DBB24E
:106C0C00AA4204F8013DEFD92146FFF7B5FF0BB0BE
:106C1C0030BD00002DE9F74F55EC104B06460F46E2
:106C2C0010EE102A10EE100A2B462946FDF746FEF0
:106C3C0040B153493046FFF79FFF8246504603B0A0
:106C4C00BDE8F08F25F000494E4B4FF0FF32204647
:106C5C004946FDF733FE48B94A4B4FF0FF32204608
:106C6C004946FDF70DFE08B94749E3E7474B4FF09E
:106C7C00604220462946FDF717FE08B14449D9E782
:106C8C00444B4FF0604220462946FDF7EFFD0028AB
:106C9C00F4D10022002320462946FDF7E7FDD0B1B0
:106CAC002D213046FFF77EFF05F1004382461D463D
:106CBC003949DFF8EC904FF0000B00204FF0000842
:106CCC005FFA8BF39F4208D942464B46FDF786FC90
:106CDC000BF1010BF4E78246EAE722462B46FDF75F
:106CEC009DF90D460446FDF727FE8046FDF7D2FAC6
:106CFC0002460B4620462946FDF78EF90A22044629
:106D0C000D4630464146FFF766FF8244002F95D072
:106D1C002249DFF88C903046FFF72EFF4FF0000829
:106D2C008244002F8AD042464B4620462946FDF726
:106D3C002BFB04460D46FDF7D7FDB0F1000B1CDA1A
:106D4C002D213046FFF72EFFCBF1000103460A221E
:106D5C0030460193FFF73FFF019B1844824458468D
:106D6C00FDF7A8FA02460B4620462946FDF754F9D2
:106D7C00013F04460D46FFB2D3E759460023E6E730
:106D8C00BC8D0B00FFFFEF7FC08D0B00FFFFEF41B1
:106D9C00C48D0B00FFFFEFC10000E03FC88D0B005E
:106DAC000000244038B5044610EE100ACDB2FDF7B1
:106DBC0093FA41EC100B29462046BDE83840FFF70A
:106DCC0029BF0000014B00229A607047DCE60320CB
:106DDC000021FFF781BB0021FFF776BB10B50446FD
:106DEC0008462170FFF750FB00236360204610BD5E
:106DFC0013B504460078FFF7EEFF58B920780190E0
:106E0C004FF6FF71FFF730FB019802B0BDE8104060
:106E1C00FFF7DEBF02B010BD0078FFF7D9BF00004E
:106E2C00400830B51860002418688842E5B206D9CD
:106E3C000134082C02D040081860F5E70725024BF6
:106E4C005B5D137030BD00BFCA8D0B002DE9F043A4
:106E5C0006468FB000780C46FFF7BDFF00281BDB01
:106E6C0035781422002109A800F044FB0B230022E2
:106E7C0009A92846ADF82430FFF716FB9DF82D30F4
:106E8C0013B19DF82C5055B10027B946B8460125D1
:106E9C0023795DB1C3B100200FB0BDE8F083DDF8FC
:106EAC0030809DF834909DF83570F1E7002B35D18A
:106EBC00A368434508D18DF820908DF82170BDF85A
:106ECC002020A3899A42E6D00023A1688DF80F30C8
:106EDC000A9804AB0DF10F02FFF7A2FF217985B9D7
:106EEC0089B9A36843450ED38DF820908DF8217095
:106EFC00BDF82020A3899A4205D1049B434502D1B9
:106F0C00C9E70029F9D100230193637B00939DF815
:106F1C000F20237B3078FFF7CFFABCE7CDE9005583
:106F2C002B462A460121F5E708B50078FFF7A4FAAD
:106F3C00C0B208BD054B02221A60054B054A9A6087
:106F4C000020C3E90000FFF74FBB00BFF8E60320A9
:106F5C00ECE603200000FFFF024B1A68024B1A609C
:106F6C00704700BFCCE50320FCE60320704741745A
:106F7C00704708B5007CFFF7E7FA20EAE07008BD1F
:106F8C0008B5007CFFF7B8FA20EAE07008BD08B538
:106F9C00007CFFF7C1FA40EAE07008BD08B5007C40
:106FAC00FFF7B2FA40EAE07008BD007CFFF7BCBA0C
:106FBC0037B5457C04462DB1207C03B0BDE830408C
:106FCC00FFF792BA007C0191FFF7BEFA00280199F5
:106FDC00F2DC284603B030BD10B514210446FDF791
:106FEC0010FD204610BD000010B54FF47A73044616
:106FFC00084611460022C4E90123044B23600123F7
:10700C0020746374FFF7A8FA204610BDF88D0B00AE
:10701C00417470477047704708B50021007CFFF73A
:10702C00C3FA40EAE07008BD08B50121007CFFF707
:10703C00BBFA40EAE07008BD08B5007CFFF7ACFA7B
:10704C0020EAE07008BD08B5007CFFF79DFA20EA45
:10705C00E07008BD13B50446007C0191FFF79CFA63
:10706C000028019901DC607C20B1207CFFF7A4FA98
:10707C0020EAE07002B010BD007CFFF7A5BA10B595
:10708C0014210446FDF7BDFC204610BD10B54FF48D
:10709C007A73044608460021C4E90113044B2360AB
:1070AC000123207463741146FFF75EFA204610BD6D
:1070BC00288E0B00007C0022FFF75EBA10B514225C
:1070CC000446002100F016FA204610BD10B50F4CF6
:1070DC0088B003A8FFF7F2FF2178BFF35B8F11F0A4
:1070EC0001010FD120460191FDF79AFC019948B19D
:1070FC0003AA0748FFF7CAFF2046FDF796FC054890
:10710C0000F0E4F9024808B010BD00BF00E703200E
:10711C0004E7032021700B00002240681146FFF7A2
:10712C00A7BA002240681146FFF7C2BA0022406895
:10713C001146FFF7CDBA40680022FFF7C1BA40688C
:10714C00002281F00101FFF7ABBA002340681A4618
:10715C001946FFF79DBA002340681A461946FFF7F7
:10716C008FBA002240681146FFF772BA40680022BD
:10717C000221FFF775BA002340681A46FFF760BA80
:10718C00024B04225A60024A1A60704718E7032027
:10719C00588E0B00014B1860704700BFD0E50320E0
:1071AC0008B50B4B43B1FFF791FF03681B69984778
:1071BC00002801DDAFF30080064B43B100F060F90D
:1071CC0003681B699847002801DDAFF3008008BDF8
:1071DC00000000000000000008B5FFF7E1FFFFF71A
:1071EC00A3F8014B186008BD28E703200548064AA0
:1071FC00064908B5121A00F06FF9054B054A1A60DA
:10720C0008BD00BF00F4032004F40320C48F0B005E
:10721C0000F403201E1C279A07B5002300931A467E
:10722C006FF07701FFF7FAF903B05DF804FB00008B
:10723C0007B543880A2B08D0502B0BD1094B1B6880
:10724C004BB103B05DF804EB1847FFF7E5FF03B053
:10725C005DF804FB002300931A466FF07701FFF7EB
:10726C00DDF9F4E724E7032010B512480021FFF7FD
:10727C005FFA114B1A68114B9A42114B0CBF012249
:10728C0000221A7001D0FFF7B1FFFFF73DF804465A
:10729C0000F038F90B4B13B12046AFF300800021FE
:1072AC000848FFF7C5F9BDE8104007480021FFF773
:1072BC00ABB900BFA1710B0000F403201E1C279A70
:1072CC0020E70320000000003D720B00232813B5BB
:1072DC0002D9002002B010BDA0F10B03022B1AD86A
:1072EC00174C2178BFF35B8F11F001010BD12046B5
:1072FC000191FDF795FB019928B11248FFF76EFD3E
:10730C002046FDF792FB0F4B1878FFF7C5F80028C5
:10731C00DFD10120DEE7012809D800F071F8002147
:10732C00007CFFF771F880F00100C0B2D2E7093899
:10733C000128EED800F0A4F8007CFFF7FDF8F2E786
:10734C00B8E60320BCE60320232838B504460D46D6
:10735C000AD8FF2908D0FFF7B9FF28B129462046E3
:10736C00BDE83840FEF7F0BF38BD38B504460D46D1
:10737C00FEF7F2FFFF2810D0062804D84D2323FA7D
:10738C0000F0C30709D42046FFF7A0FF28B1294617
:10739C002046BDE83840FEF7E7BF38BD0D2810B5D4
:1073AC0004469CBF0E34A4B22046FFF78FFF50B1A9
:1073BC0003212046FEF7C0FF032804D12046BDE878
:1073CC001040FEF7D9BF002010BD704738B50A4BEE
:1073DC0003600123044643610849202000F074F83F
:1073EC00202560600549A560284600F06DF8C4E9C9
:1073FC000305204638BD00BF180001008C8E0B0021
:10740C0030B50E4D2978BFF35B8F11F0010487B0B6
:10741C0011D12846FDF704FB68B16846FFF7D6FF8B
:10742C006A4621460648FFF701FA2846FDF7FDFAA1
:10743C00044800F04BF8024807B030BD2CE703209D
:10744C0030E70320D7730B007047000038B50446B3
:10745C0014252A46002100F04DF8258040250749C7
:10746C0025812846258200F02FF8044960602846C3
:10747C0000F02AF8E060204638BD00BF8C8E0B006F
:10748C0030B50E4D2978BFF35B8F11F0010487B036
:10749C0011D12846FDF7C4FA68B101A8FFF7D6FF51
:1074AC0001AA21460648FFF79FFD2846FDF7BDFAC5
:1074BC00044800F00BF8024807B030BD44E7032045
:1074CC0048E7032055740B00FDF799BA00230146D9
:1074DC001A46184600F044B80A44914200F1FF33B2
:1074EC0000D1704710B511F8014B03F8014F9142D0
:1074FC00F9D110BD02440346934200D1704703F802
:10750C00011BF9E738B5104B1D68AB6B0446B3B9DA
:10751C001820FFF7F5F80246A86320B90B4B0C486E
:10752C004221FFF7FDF80B490B4BC0E900130B4B45
:10753C0083600B23838100210120C2E90401AB6B22
:10754C0000221C615A6138BDD0E503208D8E0B00E2
:10755C00A48E0B000E33CDAB34126DE6ECDE0500C1
:10756C002DE9F843DFF8B8800646D8F800001F462E
:10757C000D46914600F056F8254B1C6834B9254C45
:10758C001C60254B13B11B68C4F8883063681F2B33
:10759C0007DDD8F8000000F047F84FF0FF30BDE8E9
:1075AC00F8834EB3D4F8880088B91C4B23B9D8F8AB
:1075BC00000000F038F8F0E74FF48470FFF7A0F803
:1075CC000028F4D00023C0E94033C4F88800636875
:1075DC0040F8239001229A4000EB8301D0F800314F
:1075EC001343C0F80031022EC1F8807002BFD0F8EE
:1075FC0004311343C0F804316368D8F800005A1CF6
:10760C000233626044F8235000F00EF80020C6E705
:10761C00E8E703205CE70320000000000D670B0087
:10762C0034E60320704770477047000095490B0003
:10763C00D1490B00F9490B00FD490B00000000007B
:10764C0043616C6C206F6E20707572652076697268
:10765C007475616C004572726F723A2053575F52A9
:10766C004553455428292E2053544F502100457220
:10767C00726F723A207365745F636F6E74696E75A6
:10768C006F75735F6D6F646528292E2053544F50AE
:10769C0021004572726F723A20726561645F746585
:1076AC006D706572617475726528292E2053544F64
:1076BC005021002043005A00000000000600010089
:1076CC00000001050200FC00010003010400FC00A5
:1076DC00020005050600FC00060005050600FC007E
:1076EC000A0005050600FC000E0005050600FC005E
:1076FC00120001010200FC00130002050300FC0053
:10770C00150002050300FC00170003030400FD0034
:10771C00190003030400FD001B000102020000001D
:10772C001C0004010500FE001D0001010200000008
:10773C001E0005050600FC00220005050600FC00E5
:10774C00260001050200FC00270005050600FC00D0
:10775C002B0005050600FC002F0005050600FC00AB
:10776C00330005050600FC00370005050600FC008B
:10777C003B0005050600FC003F0005050600FC006B
:10778C00430005050600FC00470001040200FD0053
:10779C00480001040200FD00490003050400FC0040
:1077AC004B0004030500FD004D0003050400FC0024
:1077BC004F0005050600FC00530005050600FC0003
:1077CC00570005050600FC005B0005050600FC00E3
:1077DC005F0005050600FC00630005050600FC00C3
:1077EC00670005050600FC006B0005050600FC00A3
:1077FC006F0005050600FC00730005050600FC0083
:10780C00770005050600FC007B0005050600FC0062
:10781C007F0005050600FC00830005050600FC0042
:10782C00870005050600FC008B0005050600FC0022
:10783C008F0005050600FC00930005050600FC0002
:10784C00970005050600FC009B0005050600FC00E2
:10785C009F0005050600FC00A30005050600FC00C2
:10786C00A70005050600FC00AB0005050600FC00A2
:10787C00AF0005050600FC00B30005050600FC0082
:10788C00B70005050600FC00BB0005050600FC0062
:10789C00BF0002050300FC00C10005050600FC004A
:1078AC00C50002050300FC00C70003020400FC0035
:1078BC00C800050106000100C90001010200FC001E
:1078CC00CA0004040500FD00CC0004050500FC0002
:1078DC00CF0004040500FD00D10004050500FC00E8
:1078EC00D40004040500FD00D60003050400FC00D0
:1078FC00D80004050500FD00DB0004050500FC00B4
:10790C00DE0001040200FD00DF0002050300FD00A3
:10791C00E10004050500FC00E40001050200FC0088
:10792C00E50005040600FD00E80004040500FD0068
:10793C00EA0004040500FD00EC0004050500FD0050
:10794C00EF0004050500FD00F20004040500FD0035
:10795C00F40004040500FD00F60005050600FC001B
:10796C00FA0004040500FD00FC0004040500FD0001
:10797C00FE0005040600FD00010104040500FD00E5
:10798C00030104050500FD00060104040500FD00CB
:10799C00080103050400FC000A0101050200FC00BB
:1079AC000B0103050400FC000D0105030600FD009E
:1079BC00E8A057D5F500FD3E5F8088888880F4BF2D
:1079CC002E80806A409580AA805D00C0F080088877
:1079DC008800FC631F80F8F87F0F80F87E1F808C76
:1079EC007E1080FC3E1F80FC3F1F80F8421080FC04
:1079FC007F1F80FC7E1F8090B02A22F0F088A8F8B0
:107A0C004E0200FD6F0F80FC7F1880F47D1F00FC80
:107A1C00210F80F4631F00FC3F0F80FC3F0800FC2B
:107A2C002F1F808C7F1880F9084F8078852F808DD0
:107A3C00B1688084210F80FD6B5A80FC631880FC38
:107A4C00631F80FC7F0800FC633F80FC7F2900FCE7
:107A5C003E1F80F90842008C631F808C62A200AD2F
:107A6C006B5F808A88A8808C544200F87F0F80EA74
:107A7C00C082082080D5C054F880F1FF8F99F0F8AF
:107A8C008F1F99F0FF8F6BA4F99F108F9990F05571
:107A9C00C08AF990F8FD6310F999F99FF99F80F964
:107AAC009F20F888471F27C84200999F99978C6B95
:107ABC00F09669999F102E8F2B22F889A80FE00061
:107ACC00D07D0B00D87A0B00207E1D00000000003A
:107ADC0007000100000004110803F00009000A0669
:107AEC000B01EF0011000D100D00F1002B000D1417
:107AFC000D00EF004C0013111501F0007500101172
:107B0C001101F000970004060601EF009A0006161A
:107B1C000801EF00AB0006160801EF00BC000708D7
:107B2C000901EF00C3000B0B0E02F600D300040793
:107B3C000601FE00D70006030801F900DA00040371
:107B4C000601FE00DC0006110700F000E9000C1134
:107B5C000D01F000030107110E03F00012010C11CE
:107B6C000D01F0002C010C110D01F00046010B1160
:107B7C000D01F0005E010C110D01F00078010C11EB
:107B8C000D01F00092010B110D01F000AA010C1176
:107B9C000D01F000C4010C110D01F000DE01040C0C
:107BAC000601F500E40104100601F500EC010C0CD3
:107BBC000E01F500FE010C090E01F7000C020C0C75
:107BCC000E01F5001E020C120F02EF003902151502
:107BDC001701EF00710210121100EF0095020E1246
:107BEC001102EF00B50210121101EF00D9020F12B1
:107BFC001102EF00FB020D121002EF0019030C1220
:107C0C000F02EF00340310121201EF0058030E1292
:107C1C001202EF00780304120702EF0081030B122B
:107C2C000E01EF009A0310121102EF00BE030B12AB
:107C3C000F02EF00D70311121502EF00FE030F1213
:107C4C001202EF00200411121301EF0047040E1270
:107C5C001002EF00670411131301EF0090041012CF
:107C6C001102EF00B4040F121001EF00D6040C1235
:107C7C000F02EF00F1040E121202EF0011050F12A9
:107C8C001000EF00330517121700EF0067050F12F5
:107C9C001001EF00890510120F00EF00AD050D1259
:107CAC000F01EF00CB0506170802EF00DD050711E9
:107CBC000700F000EC0506170800EF00FE050C0BA2
:107CCC000E01F0000F060F020DFF04001306040353
:107CDC000600EF0015060D0D0E01F4002B060D121B
:107CEC000F02EF0049060C0D0D01F4005D060D129C
:107CFC000F01EF007B060D0D0E01F400910607122B
:107D0C000801EF00A1060D120F01F400BF060C12C2
:107D1C000E02EF00DA0604120702EF00E306061764
:107D2C000700EF00F5060C120E02EF00100704120C
:107D3C000602EF001907130D1502F40038070C0D9D
:107D4C000F02F4004C070D0D0F01F40062070D1229
:107D5C000F02F40080070D120F01F4009E07080DAE
:107D6C000902F400AB070C0D0D01F400BF07060F60
:107D7C000801F200CB070C0D0F02F400DF070D0D0C
:107D8C000D00F400F507120D1300F40013080D0D8F
:107D9C000D00F40029080D120D00F40047080A0D1F
:107DAC000C01F400580806170901EF006A080216C6
:107DBC000702EF00700806170903EF0082080C0594
:107DCC000C00F900FFFFFFFF766660FFF0F3FCFF8D
:107DDC003FCF6198600E70738318FFF7FFBFFC7381
:107DEC00831818C7FFBFFDFFE31839C1CE0E700210
:107DFC00007E0FF87FE7AFB93DC80F403F00FF0092
:107E0C00FC05FF27F93FEBEFFE3FE07C0080040010
:107E1C003C060FC181FC30738C0C3181CE601FCCC1
:107E2C0003F3003C678019F8027F80CE7011860640
:107E3C0039C187F8307E0C078007801FC03FE03CBB
:107E4C00E03CE03EE00FC007003F8C7FCCF1FCF043
:107E5C00F8F078F8F87FFC3FDE1F8EFFFF660C739E
:107E6C008E71C738E38E38E38E1C71C38E1870C3C5
:107E7C00871C38E3871C71C71C71CE38E71C6380E4
:107E8C0010235FF3871B140E01C038070FFFFFFF91
:107E9C00F8700E01C03800FFF336C0FFFFC0FFF0D2
:107EAC000C308618610C30C218618430C01F83FC02
:107EBC007FE79EF0FF0FF0FF0FF0FF0FF0FF0FF0CA
:107ECC00F79E7FE3FC0F00061C7FFFE3C78F1E3C71
:107EDC0078F1E3C78F1E1F83FC7FEF9FF0FF0F002D
:107EEC00F00F01E03C0F81E03C03807FF7FF7FF057
:107EFC001F07FCFFEF1EF1E01E03C07807C01E0039
:107F0C00F00FF0FF1F7FE7FC1F8003C0F81F07E195
:107F1C00BC278CF31E63D87BFFFFFFFE0780F01E8F
:107F2C0003C03FE7FE7FE7006006F87FCFFEF1F06D
:107F3C000F00F00F00FE1EFFE7FC3F000F83FC7FDD
:107F4C00E79FF00F78FFCFFEF9FF0FF0FF0FF0F770
:107F5C009F7FE3FC0F80FFFFFFFF80E01C0701E029
:107F6C00380F01C0780F01E0380F01E03C000F031F
:107F7C00FC7FC79E70E70E39C1F83FC79EF0FF0F1C
:107F8C00F0FF9F7FE3FC1F801F03FC7FEF9EF0EF51
:107F9C000FF0FF0FF9F7FF3FF1EF00EF1E7FE7FC4B
:107FAC001F00FFF000000FFFFFF000000FFF116C2F
:107FBC0000100703F1FC7E0F80E00FC03F807F00B4
:107FCC00F003FFFFFFFFF000000000FFFFFFFFF0DA
:107FDC00000E00FC07F00FE01F00F07F1F8FE0F099
:107FEC0008001F07FC7FEF9FF0FF0F00F00F01E070
:107FFC003C0780F00E00E00000F00F00F000FE00E7
:10800C001FFC03C0F03801C38007183D9987EC6C46
:10801C0071C3C3061E1830F181878C187C60C36352
:10802C008E3B8FDF8C3CF0700001C0000780801FFE
:10803C00FE001FC00003E003E003E007F007F007B9
:10804C00700F780E780E381E3C1C3C3FFC3FFE3FF8
:10805C00FE780E780F700FF007FFC3FFCFFF3C3E8A
:10806C00F07BC1EF0FBFFCFFE3FFCF07BC0FF03F6E
:10807C00C0FF07FFFEFFFBFF8007E01FF83FFC7C03
:10808C003E781FF80FF000F000F000F000F000F068
:10809C0000F80F781F7C3E3FFE1FFC07F0FFE1FF4E
:1080AC00E3FFE783EF03DE07FC07F80FF01FE03F69
:1080BC00C07F80FF03FE07BC1F7FFCFFF1FF80FF2A
:1080CC00F7FFBFFDE00F007803C01FFCFFE7FF3C8C
:1080DC0001E00F007803C01FFFFFFFFFC0FFFFFF91
:1080EC00FFFF00F00F00F00FFEFFEFFEF00F00F0AF
:1080FC000F00F00F00F00F0003F00FFC3FFE3E1FCF
:10810C0078077800F000F000F07FF07FF07FF00748
:10811C0078077C0F3E1F3FFB0FFB03E3F03FC0FFD4
:10812C0003FC0FF03FC0FF03FFFFFFFFFFFF03FC4B
:10813C000FF03FC0FF03FC0FF03FC0F0FFFFFFFF4D
:10814C00FFFFFFFFFF01E03C0780F01E03C0780F2C
:10815C0001E03C07F8FF1FE3FC7BFE7FC3E0F03E31
:10816C00F03CF078F0F0F1E0F3C0F780FF00FF8016
:10817C00FF80FBC0F1E0F0F0F0F0F078F03CF03E66
:10818C00F01EF01E03C0780F01E03C0780F01E03C8
:10819C00C0780F01E03C07FFFFFFFCF81FFE0FFF4C
:1081AC000FFF87FFC3FFE1FFF9FFFCEFFE77FB3BFF
:1081BC00FDDDFEFCFF7E7F9F3FCF9FE78FF3C7F86F
:1081CC00E3C0F01FF03FF07FE0FFE1FFC3FDC7FB12
:1081DC008FF39FE73FC77F8FFF0FFE1FFC1FF81F1A
:1081EC00F03FE03C03E00FFC0FFF87C7C780F3C0F4
:1081FC007BC01FE00FF007F803FC01FE00F780F3D3
:10820C00C078F0F87FFC1FFC03F800FFE3FFEFFFE2
:10821C00BC1FF03FC0FF03FC1FFFFBFFCFFE3C0069
:10822C00F003C00F003C00F003C00003E00FFC0F94
:10823C00FF87C7C780F3C07BC01FE00FF007F803B0
:10824C00FC01FE04F787F3C3F8F0F87FFC1FFF83F3
:10825C00F1800000FFF8FFFCFFFCF03EF01EF01E6A
:10826C00F01EF03CFFF8FFF0FFF8F03CF03CF03C67
:10827C00F03CF03CF03CF01F0FC07FE1FFE7C3EF98
:10828C0003DE003C007F007FF03FF80FF801F001A7
:10829C00FE03DE0FBFFE3FF81FC0FFFFFFFFF0F035
:1082AC000F00F00F00F00F00F00F00F00F00F00FB8
:1082BC0000F00F00F0F03FC0FF03FC0FF03FC0FFD9
:1082CC0003FC0FF03FC0FF03FC0FF03FC0F7879F8C
:1082DC00FE3FF03F00700EF03DE079C0E381C787B0
:1082EC00870E0E1C1E781CE039C073807E00FC01CA
:1082FC00F801E003C0078070381CE0F079E1F0F37E
:10830C00C3E1E387C3870F870E3B9E1E77381CEEB5
:10831C007039CCE07399C06E3F00FC7E01F8FC0311
:10832C00F0F803E1E00783C00F0780F03CF0F9E1BF
:10833C00E1E783CF03FC03F007E007800F003F0069
:10834C00FF01FE079E0F1E3C3CF83DE078F01E78C6
:10835C001E783C3C3C3C781E780E700FF007E00712
:10836C00E003C003C003C003C003C003C003C003C9
:10837C00C0FFFFFFFFFE01F00F00F00F00F80780B9
:10838C007807807C03C03C03C01FFFFFFFFFC0FFCA
:10839C00FFFCF3CF3CF3CF3CF3CF3CF3CF3CFFFFE0
:1083AC00C0C1810306040C1810306040C181030663
:1083BC00FFFFCF3CF3CF3CF3CF3CF3CF3CF3CFFFED
:1083CC00FFC00F00F00F01F81B839C39C30C70E742
:1083DC000EE070FFFFFFFCE6301F83FF1FFDE1E0A6
:1083EC000F03F9FFDF1EF0F78FBFFCFFE3CF80F028
:1083FC0007803C01E00F007BC3FF9FFEF8F783FC76
:10840C001FE0FF07F83FE3DFFEFFE7BE000F83FE30
:10841C007FF78FF07F00F00F00F0778F7FF3FE0F68
:10842C0080007803C01E00F0078FBCFFEFFF78FFC1
:10843C0083FC1FE0FF07F83DE3EFFF3FF8FBC01F95
:10844C0081FE1FF9F1CF077FFBFFDE00F003C39F16
:10845C00FC7FC0F8003EFDFBC79FBF3C78F1E3C733
:10846C008F1E3C78F01E79FBDFFEF1FF07F83FC151
:10847C00FE0FF07FC7DFFE7FF1F7803C01FF1E7F10
:10848C00F0FE00F00F00F00F00F00F7CFFEFFFF993
:10849C00FF0FF0FF0FF0FF0FF0FF0FF0FF0FFFF0DB
:1084AC000FFFFFFFFFFFFF3CF3C000F3CF3CF3CF08
:1084BC003CF3CF3CF3CFFFFF80F00F00F00F00F048
:1084CC000F0FF1EF3CF78FF0FF0FF8FF8F3CF1CF60
:1084DC001EF0EF0FFFFFFFFFFFFFFFFFFFF78F9F68
:1084EC00FBFBFFFFFCF8FF1E1FE3C3FC787F8F0F25
:1084FC00F1E1FE3C3FC787F8F0FF1E1EF7CFFEFFF1
:10850C00FF9FF0FF0FF0FF0FF0FF0FF0FF0FF0F0E9
:10851C000F81FF1FFCF1EF07F83FC1FE0FF07BC787
:10852C009FFC7FC0F800F7C7FF3FFDF1EF07F83F56
:10853C00C1FE0FF07FC7BFFDFFCF787803C01E00D0
:10854C00F00780000F79FFDFFEF1FF07F83FC1FE57
:10855C000FF07BC7DFFE7FF1F7803C01E00F007866
:10856C0003C0F3F7FFF8F0F0F0F0F0F0F0F0F01FCC
:10857C0087FCFFEF0FF80FF07FE0FF01FF0FFFE725
:10858C00FE1F8079E7BFFDE79E79E79E7DF3C0F083
:10859C00FF0FF0FF0FF0FF0FF0FF0FF0FF1FFFF7C3
:1085AC00FF3EF0F07B839E1CF1E38E1C707783B84A
:1085BC001DC07E03E01F007000F0E1DC78771F3DEA
:1085CC00E7CF79B38E6CE3BB38EEFC1F3F07C7C116
:1085DC00F1F07C780E1E0078F3C78F783B81FC0796
:1085EC00C01E01F01FC0EF0F78F1E78700F07B830E
:1085FC009E1C71E38E1E707383B81FC07E03E00F48
:10860C00007003803C07C03E01E000FFFFFFFC0F41
:10861C000783C1E0F0783C0FFFFFFFC01CF3CE389E
:10862C00E38E38E3BCF0E38E38E38E3CF1C0FFFF01
:10863C00FFFFFFF0E38F1C71C71C71C70F3DC71CF8
:10864C0071C71CF3CE00780FE0CF307F01E0000043
:10865C00BC790B00C4760B00207E070000000000E4
:10866C00003E5B4F5B3E3E6B4F6B3E1C3E7C3E1CAC
:10867C00183C7E3C181C577D571C1C5E7F5E1C00F2
:10868C00183C1800FFE7C3E7FF0018241800FFE7A9
:10869C00DBE7FF30483A060E2629792926407F056C
:1086AC000507407F05253F5A3CE73C5A7F3E1C1C82
:1086BC0008081C1C3E7F14227F22145F5F005F5F42
:1086CC0006097F017F006689956A6060606060942E
:1086DC00A2FFA29408047E040810207E2010080833
:1086EC002A1C08081C2A08081E101010100C1E0C3E
:1086FC001E0C30383E3830060E3E0E0600000000D0
:10870C000000005F00000007000700147F147F14B6
:10871C00242A7F2A122313086462364956205000FB
:10872C0008070300001C2241000041221C002A1CE7
:10873C007F1C2A08083E08080080703000080808D2
:10874C000808000060600020100804023E514945F2
:10875C003E00427F400072494949462141494D3310
:10876C001814127F1027454545393C4A4949314177
:10877C00211109073649494936464949291E000045
:10878C00140000004034000000081422411414149A
:10879C001414004122140802015909063E415D5986
:1087AC004E7C1211127C7F494949363E414141228F
:1087BC007F4141413E7F494949417F090909013EB9
:1087CC00414151737F0808087F00417F41002040E0
:1087DC00413F017F081422417F404040407F021CF2
:1087EC00027F7F0408107F3E4141413E7F09090909
:1087FC00063E4151215E7F091929462649494932D5
:10880C0003017F01033F4040403F1F2040201F3F9A
:10881C004038403F6314081463030478040361591F
:10882C00494D43007F414141020408102000414161
:10883C00417F04020102044040404040000307080D
:10884C000020545478407F28444438384444442809
:10885C00384444287F385454541800087E090218B0
:10886C00A4A49C787F0804047800447D4000204038
:10887C00403D007F1028440000417F40007C04787C
:10888C0004787C080404783844444438FC182424C4
:10889C001818242418FC7C08040408485454542444
:1088AC0004043F44243C4040207C1C2040201C3CC1
:1088BC004030403C44281028444C9090907C4464B8
:1088CC00544C44000836410000007700000041364B
:1088DC00080002010204023C2623263C1EA1A161D1
:1088EC00123A4040207A3854545559215555794103
:1088FC002254547842215554784020545579400CD8
:10890C001E527212395555555939545454593955BA
:10891C005454580000457C410002457D42000145FD
:10892C007C407D1211127DF0282528F07C54554591
:10893C00002054547C547C0A097F493249494932FD
:10894C003A4444443A324A4848303A4141217A3A0E
:10895C0042402078009DA0A07D3D4242423D3D40DA
:10896C0040403D3C24FF2424487E4943662B2FFC89
:10897C002F2BFF0929F620C0887E09032054547937
:10898C00410000447D413048484A32384040227A08
:10899C00007A0A0A727D0D19317D2629292F282685
:1089AC002929292630484D4020380808080808088D
:1089BC000808382F10C8ACBA2F102834FA00007BE6
:1089CC00000008142A142222142A140855005500F9
:1089DC0055AA55AA55AAFF55FF55FF000000FF00E8
:1089EC00101010FF00141414FF001010FF00FF10E3
:1089FC0010F010F0141414FC001414F700FF000015
:108A0C00FF00FF1414F404FC141417101F10101F93
:108A1C00101F1414141F00101010F0000000001F81
:108A2C00101010101F10101010F010000000FF108C
:108A3C001010101010101010FF10000000FF140088
:108A4C0000FF00FF00001F10170000FC04F41414BA
:108A5C001710171414F404F40000FF00F714141486
:108A6C0014141414F700F7141414171410101F1006
:108A7C001F141414F4141010F010F000001F101F29
:108A8C000000001F14000000FC140000F010F01097
:108A9C0010FF10FF141414FF141010101F0000000E
:108AAC0000F010FFFFFFFFFFF0F0F0F0F0FFFFFF12
:108ABC000000000000FFFF0F0F0F0F0F3844443869
:108ACC0044FC4A4A4A347E02020606027E027E02B8
:108ADC0063554941633844443C04407E201E2006C3
:108AEC00027E020299A5E7A5991C2A492A1C4C7200
:108AFC0001724C304A4D4D303048784830BC625A87
:108B0C00463D3E494949007E0101017E2A2A2A2A16
:108B1C002A44445F444440514A444040444A5140F2
:108B2C000000FF0103E080FF000008086B6B0836B3
:108B3C0012362436060F090F060000181800000024
:108B4C001010003040FF0101001F01011E00191D13
:108B5C001712003C3C3C3C000000000000000000F0
:108B6C0000000000000000000000000015570B0082
:108B7C00596B0B00154A0B00C3510B00C5510B0070
:108B8C00F7510B00D3510B00E5510B0005510B00B5
:108B9C00C3510B00EF530B00ED530B000F520B00A6
:108BAC004D520B0087520B00CD520B00E9520B00BB
:108BBC006D530B00000000000000000000000000DE
:108BCC000000000015570B00596B0B00BF5F0B002A
:108BDC00535A0B00815F0B00735B0B002D5E0B0077
:108BEC00D35D0B0005510B007F5A0B00EF530B00AC
:108BFC00FB5E0B00575D0B00D75C0B00135C0B008E
:108C0C00CD520B00E9520B006D530B00154A0B00B3
:108C1C00154A0B00090180961180FF3A81550A36DE
:108C2C0001082A04000000F02B04000000F0218051
:108C3C000A13800A2980FF000000000000000000D9
:108C4C0085600B00ED600B0015570B00596B0B008A
:108C5C00BF5F0B00535A0B00815F0B00735B0B0063
:108C6C002D5E0B00D35D0B0005510B007F5A0B00E2
:108C7C0087600B00FB5E0B00575D0B00D75C0B0095
:108C8C00135C0B00CD520B00E9520B006D530B0023
:108C9C00B9610B00D9610B0000000000000000005E
:108CAC0045610B002B620B0015570B00596B0B0029
:108CBC00BF5F0B00535A0B00815F0B00735B0B0003
:108CCC002D5E0B00D35D0B0005510B007F5A0B0082
:108CDC0047610B00FB5E0B00575D0B00D75C0B0074
:108CEC00135C0B00CD520B00E9520B006D530B00C3
:108CFC00B9610B00D9610B000000000000000000FE
:108D0C00C3670B00B9670B00AF670B00A5670B00BF
:108D1C0099670B008D670B00356A0B003D6A0B00E1
:108D2C0081670B0079670B006F670B0065670B00A1
:108D3C006D6A0B000000000000000000E1670B00F2
:108D4C002B680B0003680B00E3670B000B680B0030
:108D5C0013680B001B680B0023680B00000000005D
:108D6C000000000005690B00F5680B00F7680B00AC
:108D7C00617070000000000000000000F5690B003D
:108D8C00FF690B00096A0B00136A0B001D6A0B00CC
:108D9C00296A0B00356A0B003D6A0B00456A0B0013
:108DAC00516A0B00596A0B00636A0B006D6A0B0069
:108DBC006E616E00696E66006F7666002E000008AC
:108DCC0010182028303825592D256D2D2564542553
:108DDC00483A254D3A2553257A0061736374696DC1
:108DEC00650000000000000000000000796F0B001F
:108DFC00E56F0B00BD6F0B00596B0B008D6F0B00FB
:108E0C00A96F0B009B6F0B00B76F0B007B6F0B00F8
:108E1C007F6F0B00000000000000000023700B00AF
:108E2C008B700B0061700B00596B0B0053700B00B7
:108E3C0025700B0035700B0085700B0045700B0016
:108E4C001D700B00000000000000000083710B007F
:108E5C0079710B006F710B0025710B0063710B00A6
:108E6C0057710B00356A0B003D6A0B004B710B0000
:108E7C0043710B0039710B002F710B006D6A0B00E5
:108E8C00005245454E54206D616C6C6F63207375B8
:108E9C0063636565646564002F746D702F6A656E1D
:108EAC006B696E732D4743432D31302D706970659E
:108EBC006C696E652D34385F32303230313132347A
:108ECC005F313630363138303633392F7372632F89
:108EDC006E65776C69622F6E65776C69622F6C6951
:108EEC0062632F7374646C69622F72616E642E639B
:108EFC0000000000954D0B0055670B00CD670B0073
:108F0C00E5690B00456B0B00D16D0B00416F0B003D
:088F1C00656F0B008D710B0065
:108F2400040000001400000003000000474E550038
:108F3400F557A1D52EAA4E7EAA33F8E62982AC10A5
:048F4400BC2A7122B0
:108F48001900000001000000FA000000960000006F
:108F5800E68D0B00D4E503200000000000000000AF
:108F680000000000000000000000000000000000F9
:108F780000000000000000000000000000000000E9
:108F880000000000000000000000000000000000D9
:108F980000000000000000000000000000000000C9
:108FA80000000000000000000000000000000000B9
:0C8FB8000000000000000000ECE70320B7
:048FC40000000000A9
:108FCE0000000102030405060708090A0B0C0D0E2A
:108FDE000F101112131415161718191A1B1C1D1E1B
:048FEE001F20280018
:048FF2007856341267
:04000003B000401CED
:00000001FF
